{
  "abi": [
    {
      "inputs": [
        {
          "internalType": "string",
          "name": "name_",
          "type": "string"
        },
        {
          "internalType": "string",
          "name": "symbol_",
          "type": "string"
        },
        {
          "internalType": "uint8",
          "name": "decimals_",
          "type": "uint8"
        },
        {
          "internalType": "uint256",
          "name": "fee",
          "type": "uint256"
        }
      ],
      "stateMutability": "nonpayable",
      "type": "constructor"
    },
    {
      "anonymous": false,
      "inputs": [
        {
          "indexed": true,
          "internalType": "address",
          "name": "owner",
          "type": "address"
        },
        {
          "indexed": true,
          "internalType": "address",
          "name": "spender",
          "type": "address"
        },
        {
          "indexed": false,
          "internalType": "uint256",
          "name": "value",
          "type": "uint256"
        }
      ],
      "name": "Approval",
      "type": "event"
    },
    {
      "anonymous": false,
      "inputs": [
        {
          "indexed": true,
          "internalType": "address",
          "name": "from",
          "type": "address"
        },
        {
          "indexed": true,
          "internalType": "address",
          "name": "to",
          "type": "address"
        },
        {
          "indexed": false,
          "internalType": "uint256",
          "name": "value",
          "type": "uint256"
        }
      ],
      "name": "Transfer",
      "type": "event"
    },
    {
      "inputs": [
        {
          "internalType": "address",
          "name": "owner",
          "type": "address"
        },
        {
          "internalType": "address",
          "name": "spender",
          "type": "address"
        }
      ],
      "name": "allowance",
      "outputs": [
        {
          "internalType": "uint256",
          "name": "",
          "type": "uint256"
        }
      ],
      "stateMutability": "view",
      "type": "function"
    },
    {
      "inputs": [
        {
          "internalType": "address",
          "name": "spender",
          "type": "address"
        },
        {
          "internalType": "uint256",
          "name": "amount",
          "type": "uint256"
        }
      ],
      "name": "approve",
      "outputs": [
        {
          "internalType": "bool",
          "name": "",
          "type": "bool"
        }
      ],
      "stateMutability": "nonpayable",
      "type": "function"
    },
    {
      "inputs": [
        {
          "internalType": "address",
          "name": "account",
          "type": "address"
        }
      ],
      "name": "balanceOf",
      "outputs": [
        {
          "internalType": "uint256",
          "name": "",
          "type": "uint256"
        }
      ],
      "stateMutability": "view",
      "type": "function"
    },
    {
      "inputs": [],
      "name": "decimals",
      "outputs": [
        {
          "internalType": "uint8",
          "name": "",
          "type": "uint8"
        }
      ],
      "stateMutability": "view",
      "type": "function"
    },
    {
      "inputs": [
        {
          "internalType": "address",
          "name": "spender",
          "type": "address"
        },
        {
          "internalType": "uint256",
          "name": "subtractedValue",
          "type": "uint256"
        }
      ],
      "name": "decreaseAllowance",
      "outputs": [
        {
          "internalType": "bool",
          "name": "",
          "type": "bool"
        }
      ],
      "stateMutability": "nonpayable",
      "type": "function"
    },
    {
      "inputs": [
        {
          "internalType": "address",
          "name": "spender",
          "type": "address"
        },
        {
          "internalType": "uint256",
          "name": "addedValue",
          "type": "uint256"
        }
      ],
      "name": "increaseAllowance",
      "outputs": [
        {
          "internalType": "bool",
          "name": "",
          "type": "bool"
        }
      ],
      "stateMutability": "nonpayable",
      "type": "function"
    },
    {
      "inputs": [],
      "name": "name",
      "outputs": [
        {
          "internalType": "string",
          "name": "",
          "type": "string"
        }
      ],
      "stateMutability": "view",
      "type": "function"
    },
    {
      "inputs": [
        {
          "internalType": "bool",
          "name": "returnValue",
          "type": "bool"
        }
      ],
      "name": "setTransferReturnValue",
      "outputs": [],
      "stateMutability": "nonpayable",
      "type": "function"
    },
    {
      "inputs": [],
      "name": "symbol",
      "outputs": [
        {
          "internalType": "string",
          "name": "",
          "type": "string"
        }
      ],
      "stateMutability": "view",
      "type": "function"
    },
    {
      "inputs": [],
      "name": "totalSupply",
      "outputs": [
        {
          "internalType": "uint256",
          "name": "",
          "type": "uint256"
        }
      ],
      "stateMutability": "view",
      "type": "function"
    },
    {
      "inputs": [
        {
          "internalType": "address",
          "name": "recipient",
          "type": "address"
        },
        {
          "internalType": "uint256",
          "name": "amount",
          "type": "uint256"
        }
      ],
      "name": "transfer",
      "outputs": [
        {
          "internalType": "bool",
          "name": "",
          "type": "bool"
        }
      ],
      "stateMutability": "nonpayable",
      "type": "function"
    },
    {
      "inputs": [],
      "name": "transferFee",
      "outputs": [
        {
          "internalType": "uint256",
          "name": "",
          "type": "uint256"
        }
      ],
      "stateMutability": "view",
      "type": "function"
    },
    {
      "inputs": [
        {
          "internalType": "address",
          "name": "sender",
          "type": "address"
        },
        {
          "internalType": "address",
          "name": "recipient",
          "type": "address"
        },
        {
          "internalType": "uint256",
          "name": "amount",
          "type": "uint256"
        }
      ],
      "name": "transferFrom",
      "outputs": [
        {
          "internalType": "bool",
          "name": "",
          "type": "bool"
        }
      ],
      "stateMutability": "nonpayable",
      "type": "function"
    }
  ],
  "bytecode": {
    "object": "0x60806040523480156200001157600080fd5b506040516200101238038062001012833981016040819052620000349162000264565b60046200004285826200037d565b5060056200005184826200037d565b506006805460ff191660ff84161790556200008f336200007384600a6200055e565b620000899069152d02c7e14af680000062000576565b620000aa565b60005550506006805461ff00191661010017905550620005b3565b6001600160a01b038216620001055760405162461bcd60e51b815260206004820152601f60248201527f45524332303a206d696e7420746f20746865207a65726f206164647265737300604482015260640160405180910390fd5b806003600082825462000119919062000598565b90915550506001600160a01b038216600090815260016020526040812080548392906200014890849062000598565b90915550506040518181526001600160a01b038316906000907fddf252ad1be2c89b69c2b068fc378daa952ba7f163c4a11628f55a4df523b3ef9060200160405180910390a35050565b505050565b634e487b7160e01b600052604160045260246000fd5b600082601f830112620001bf57600080fd5b81516001600160401b0380821115620001dc57620001dc62000197565b604051601f8301601f19908116603f0116810190828211818310171562000207576200020762000197565b816040528381526020925086838588010111156200022457600080fd5b600091505b8382101562000248578582018301518183018401529082019062000229565b838211156200025a5760008385830101525b9695505050505050565b600080600080608085870312156200027b57600080fd5b84516001600160401b03808211156200029357600080fd5b620002a188838901620001ad565b95506020870151915080821115620002b857600080fd5b50620002c787828801620001ad565b935050604085015160ff81168114620002df57600080fd5b6060959095015193969295505050565b600181811c908216806200030457607f821691505b6020821081036200032557634e487b7160e01b600052602260045260246000fd5b50919050565b601f8211156200019257600081815260208120601f850160051c81016020861015620003545750805b601f850160051c820191505b81811015620003755782815560010162000360565b505050505050565b81516001600160401b0381111562000399576200039962000197565b620003b181620003aa8454620002ef565b846200032b565b602080601f831160018114620003e95760008415620003d05750858301515b600019600386901b1c1916600185901b17855562000375565b600085815260208120601f198616915b828110156200041a57888601518255948401946001909101908401620003f9565b5085821015620004395787850151600019600388901b60f8161c191681555b5050505050600190811b01905550565b634e487b7160e01b600052601160045260246000fd5b600181815b80851115620004a057816000190482111562000484576200048462000449565b808516156200049257918102915b93841c939080029062000464565b509250929050565b600082620004b95750600162000558565b81620004c85750600062000558565b8160018114620004e15760028114620004ec576200050c565b600191505062000558565b60ff84111562000500576200050062000449565b50506001821b62000558565b5060208310610133831016604e8410600b841016171562000531575081810a62000558565b6200053d83836200045f565b806000190482111562000554576200055462000449565b0290505b92915050565b60006200056f60ff841683620004a8565b9392505050565b600081600019048311821515161562000593576200059362000449565b500290565b60008219821115620005ae57620005ae62000449565b500190565b610a4f80620005c36000396000f3fe608060405234801561001057600080fd5b50600436106100cf5760003560e01c806370a082311161008c578063a457c2d711610066578063a457c2d7146101bd578063a9059cbb146101d0578063acb2ad6f146101e3578063dd62ed3e146101ec57600080fd5b806370a0823114610162578063804df59e1461018b57806395d89b41146101b557600080fd5b806306fdde03146100d4578063095ea7b3146100f257806318160ddd1461011557806323b872dd14610127578063313ce5671461013a578063395093511461014f575b600080fd5b6100dc610225565b6040516100e9919061080b565b60405180910390f35b61010561010036600461087c565b6102b7565b60405190151581526020016100e9565b6003545b6040519081526020016100e9565b6101056101353660046108a6565b6102cd565b60065460405160ff90911681526020016100e9565b61010561015d36600461087c565b6103b1565b6101196101703660046108e2565b6001600160a01b031660009081526001602052604090205490565b6101b3610199366004610904565b600680549115156101000261ff0019909216919091179055565b005b6100dc6103e8565b6101056101cb36600461087c565b6103f7565b6101056101de36600461087c565b6104ae565b61011960005481565b6101196101fa366004610926565b6001600160a01b03918216600090815260026020908152604080832093909416825291909152205490565b60606004805461023490610959565b80601f016020809104026020016040519081016040528092919081815260200182805461026090610959565b80156102ad5780601f10610282576101008083540402835291602001916102ad565b820191906000526020600020905b81548152906001019060200180831161029057829003601f168201915b5050505050905090565b60006102c43384846104cd565b50600192915050565b60006102da8484846105f2565b6001600160a01b03841660009081526002602090815260408083203384529091529020548211156103635760405162461bcd60e51b815260206004820152602860248201527f45524332303a207472616e7366657220616d6f756e74206578636565647320616044820152676c6c6f77616e636560c01b60648201526084015b60405180910390fd5b6001600160a01b03841660009081526002602090815260408083203380855292529091205461039e9186916103999086906109a9565b6104cd565b5050600654610100900460ff1692915050565b3360008181526002602090815260408083206001600160a01b038716845290915281205490916102c49185906103999086906109c0565b60606005805461023490610959565b3360009081526002602090815260408083206001600160a01b03861684529091528120548211156104785760405162461bcd60e51b815260206004820152602560248201527f45524332303a2064656372656173656420616c6c6f77616e63652062656c6f77604482015264207a65726f60d81b606482015260840161035a565b3360008181526002602090815260408083206001600160a01b03881684529091529020546102c4919085906103999086906109a9565b60006104bb3384846105f2565b5050600654610100900460ff16919050565b6001600160a01b03831661052f5760405162461bcd60e51b8152602060048201526024808201527f45524332303a20617070726f76652066726f6d20746865207a65726f206164646044820152637265737360e01b606482015260840161035a565b6001600160a01b0382166105905760405162461bcd60e51b815260206004820152602260248201527f45524332303a20617070726f766520746f20746865207a65726f206164647265604482015261737360f01b606482015260840161035a565b6001600160a01b0383811660008181526002602090815260408083209487168084529482529182902085905590518481527f8c5be1e5ebec7d5bd14f71427d1e84f3dd0314c0f7b2291e5b200ac8c7c3b92591015b60405180910390a3505050565b6001600160a01b0383166106565760405162461bcd60e51b815260206004820152602560248201527f45524332303a207472616e736665722066726f6d20746865207a65726f206164604482015264647265737360d81b606482015260840161035a565b6001600160a01b0382166106b85760405162461bcd60e51b815260206004820152602360248201527f45524332303a207472616e7366657220746f20746865207a65726f206164647260448201526265737360e81b606482015260840161035a565b6001600160a01b03831660009081526001602052604090205481111561072f5760405162461bcd60e51b815260206004820152602660248201527f45524332303a207472616e7366657220616d6f756e7420657863656564732062604482015265616c616e636560d01b606482015260840161035a565b6001600160a01b038316600090815260016020526040812080548392906107579084906109a9565b909155505060005415610797576000670de0b6b3a76400006000548361077d91906109d8565b61078791906109f7565b905061079381836109a9565b9150505b6001600160a01b038216600090815260016020526040812080548392906107bf9084906109c0565b92505081905550816001600160a01b0316836001600160a01b03167fddf252ad1be2c89b69c2b068fc378daa952ba7f163c4a11628f55a4df523b3ef836040516105e591815260200190565b600060208083528351808285015260005b818110156108385785810183015185820160400152820161081c565b8181111561084a576000604083870101525b50601f01601f1916929092016040019392505050565b80356001600160a01b038116811461087757600080fd5b919050565b6000806040838503121561088f57600080fd5b61089883610860565b946020939093013593505050565b6000806000606084860312156108bb57600080fd5b6108c484610860565b92506108d260208501610860565b9150604084013590509250925092565b6000602082840312156108f457600080fd5b6108fd82610860565b9392505050565b60006020828403121561091657600080fd5b813580151581146108fd57600080fd5b6000806040838503121561093957600080fd5b61094283610860565b915061095060208401610860565b90509250929050565b600181811c9082168061096d57607f821691505b60208210810361098d57634e487b7160e01b600052602260045260246000fd5b50919050565b634e487b7160e01b600052601160045260246000fd5b6000828210156109bb576109bb610993565b500390565b600082198211156109d3576109d3610993565b500190565b60008160001904831182151516156109f2576109f2610993565b500290565b600082610a1457634e487b7160e01b600052601260045260246000fd5b50049056fea2646970667358221220d8d3f63cdcfd22feecdf31280ef645d4037d313ca57cdda15794c81f8a339ccf64736f6c634300080f0033",
    "linkReferences": {}
  },
  "methodIdentifiers": {
    "allowance(address,address)": "dd62ed3e",
    "approve(address,uint256)": "095ea7b3",
    "balanceOf(address)": "70a08231",
    "decimals()": "313ce567",
    "decreaseAllowance(address,uint256)": "a457c2d7",
    "increaseAllowance(address,uint256)": "39509351",
    "name()": "06fdde03",
    "setTransferReturnValue(bool)": "804df59e",
    "symbol()": "95d89b41",
    "totalSupply()": "18160ddd",
    "transfer(address,uint256)": "a9059cbb",
    "transferFee()": "acb2ad6f",
    "transferFrom(address,address,uint256)": "23b872dd"
  },
  "id": 4
}