{
  "abi": [
    {
      "inputs": [
        {
          "internalType": "contract ILendingPool",
          "name": "_lendingPool",
          "type": "address"
        },
        {
          "internalType": "contract IAToken",
          "name": "_aToken",
          "type": "address"
        }
      ],
      "stateMutability": "nonpayable",
      "type": "constructor"
    },
    {
      "inputs": [],
      "name": "INDEX_SCALE_FACTOR",
      "outputs": [
        {
          "internalType": "uint256",
          "name": "",
          "type": "uint256"
        }
      ],
      "stateMutability": "view",
      "type": "function"
    },
    {
      "inputs": [],
      "name": "LendingPool",
      "outputs": [
        {
          "internalType": "contract ILendingPool",
          "name": "",
          "type": "address"
        }
      ],
      "stateMutability": "view",
      "type": "function"
    },
    {
      "inputs": [],
      "name": "decimals",
      "outputs": [
        {
          "internalType": "uint8",
          "name": "",
          "type": "uint8"
        }
      ],
      "stateMutability": "view",
      "type": "function"
    },
    {
      "inputs": [],
      "name": "description",
      "outputs": [
        {
          "internalType": "string",
          "name": "",
          "type": "string"
        }
      ],
      "stateMutability": "view",
      "type": "function"
    },
    {
      "inputs": [],
      "name": "getAnnualizedSupplyRate",
      "outputs": [
        {
          "internalType": "uint256",
          "name": "",
          "type": "uint256"
        }
      ],
      "stateMutability": "view",
      "type": "function"
    },
    {
      "inputs": [],
      "name": "getExchangeRateStateful",
      "outputs": [
        {
          "internalType": "int256",
          "name": "",
          "type": "int256"
        }
      ],
      "stateMutability": "nonpayable",
      "type": "function"
    },
    {
      "inputs": [],
      "name": "getExchangeRateView",
      "outputs": [
        {
          "internalType": "int256",
          "name": "",
          "type": "int256"
        }
      ],
      "stateMutability": "view",
      "type": "function"
    },
    {
      "inputs": [],
      "name": "token",
      "outputs": [
        {
          "internalType": "address",
          "name": "",
          "type": "address"
        }
      ],
      "stateMutability": "view",
      "type": "function"
    },
    {
      "inputs": [],
      "name": "underlying",
      "outputs": [
        {
          "internalType": "address",
          "name": "",
          "type": "address"
        }
      ],
      "stateMutability": "view",
      "type": "function"
    },
    {
      "inputs": [],
      "name": "version",
      "outputs": [
        {
          "internalType": "uint256",
          "name": "",
          "type": "uint256"
        }
      ],
      "stateMutability": "view",
      "type": "function"
    }
  ],
  "bytecode": "61012060405260016000553480156200001757600080fd5b5060405162000c8e38038062000c8e8339810160408190526200003a9162000312565b6000816001600160a01b031663b16a19de6040518163ffffffff1660e01b815260040160206040518083038186803b1580156200007657600080fd5b505afa1580156200008b573d6000803e3d6000fd5b505050506040513d601f19601f82011682018060405250810190620000b19190620002ec565b90506000816001600160a01b031663313ce5676040518163ffffffff1660e01b815260040160206040518083038186803b158015620000ef57600080fd5b505afa15801562000104573d6000803e3d6000fd5b505050506040513d601f19601f820116820180604052508101906200012a91906200040f565b905060248160ff1611156200013e57600080fd5b60ff8116600a90810a6402540be4000260a0527fff0000000000000000000000000000000000000000000000000000000000000090820160f81b16610100526001600160601b0319606085811b821660805284811b821660e05283901b1660c052604080516395d89b4160e01b815290516001600160a01b038516916395d89b41916004808301926000929190829003018186803b158015620001e057600080fd5b505afa158015620001f5573d6000803e3d6000fd5b505050506040513d6000823e601f3d908101601f191682016040526200021f919081019062000350565b8051620002359160019160209091019062000240565b50505050506200044b565b828054600181600116156101000203166002900490600052602060002090601f016020900481019282620002785760008555620002c3565b82601f106200029357805160ff1916838001178555620002c3565b82800160010185558215620002c3579182015b82811115620002c3578251825591602001919060010190620002a6565b50620002d1929150620002d5565b5090565b5b80821115620002d15760008155600101620002d6565b600060208284031215620002fe578081fd5b81516200030b8162000432565b9392505050565b6000806040838503121562000325578081fd5b8251620003328162000432565b6020840151909250620003458162000432565b809150509250929050565b6000602080838503121562000363578182fd5b82516001600160401b03808211156200037a578384fd5b818501915085601f8301126200038e578384fd5b8151818111156200039b57fe5b604051601f8201601f1916810185018381118282101715620003b957fe5b6040528181528382018501881015620003d0578586fd5b8592505b81831015620003f35783830185015181840186015291840191620003d4565b818311156200040457858583830101525b979650505050505050565b60006020828403121562000421578081fd5b815160ff811681146200030b578182fd5b6001600160a01b03811681146200044857600080fd5b50565b60805160601c60a05160c05160601c60e05160601c6101005160f81c6107de620004b060003980610139525080610345525080610163528061026a528061039b525080610214528061044052508061023b5280610321528061036c52506107de6000f3fe608060405234801561001057600080fd5b506004361061009e5760003560e01c8063b2fffb0411610066578063b2fffb04146100a3578063d94b947e14610108578063dd30a66614610110578063f575993b14610118578063fc0c546a146101205761009e565b80631ee10833146100a3578063313ce567146100c157806354fd4d50146100d65780636f307dc3146100de5780637284e416146100f3575b600080fd5b6100ab610128565b6040516100b891906106f9565b60405180910390f35b6100c9610137565b6040516100b89190610755565b6100ab61015b565b6100e6610161565b6040516100b891906106e5565b6100fb610185565b6040516100b89190610702565b6100ab610212565b6100ab610236565b6100e661031f565b6100e6610343565b6000610132610367565b905090565b7f000000000000000000000000000000000000000000000000000000000000000081565b60005481565b7f000000000000000000000000000000000000000000000000000000000000000081565b60018054604080516020600284861615610100026000190190941693909304601f8101849004840282018401909252818152929183018282801561020a5780601f106101df5761010080835404028352916020019161020a565b820191906000526020600020905b8154815290600101906020018083116101ed57829003601f168201915b505050505081565b7f000000000000000000000000000000000000000000000000000000000000000081565b6000807f00000000000000000000000000000000000000000000000000000000000000006001600160a01b03166335ea6a757f00000000000000000000000000000000000000000000000000000000000000006040518263ffffffff1660e01b81526004016102a591906106e5565b6101806040518083038186803b1580156102be57600080fd5b505afa1580156102d2573d6000803e3d6000fd5b505050506040513d601f19601f820116820180604052508101906102f691906105dd565b6060810151909150610319906001600160801b0316670de0b6b3a7640000610480565b91505090565b7f000000000000000000000000000000000000000000000000000000000000000081565b7f000000000000000000000000000000000000000000000000000000000000000081565b6000807f00000000000000000000000000000000000000000000000000000000000000006001600160a01b031663d15e00537f00000000000000000000000000000000000000000000000000000000000000006040518263ffffffff1660e01b81526004016103d691906106e5565b60206040518083038186803b1580156103ee57600080fd5b505afa158015610402573d6000803e3d6000fd5b505050506040513d601f19601f8201168201806040525081019061042691906106cd565b9050600061046a6b033b2e3c9fd0803ce8000000610464847f00000000000000000000000000000000000000000000000000000000000000006104e9565b90610480565b90506001600160ff1b0381111561031957600080fd5b60008082116104d6576040805162461bcd60e51b815260206004820152601a60248201527f536166654d6174683a206469766973696f6e206279207a65726f000000000000604482015290519081900360640190fd5b8183816104df57fe5b0490505b92915050565b6000826104f8575060006104e3565b8282028284828161050557fe5b04146105425760405162461bcd60e51b81526004018080602001828103825260218152602001806107886021913960400191505060405180910390fd5b9392505050565b80516001600160a01b038116811461056057600080fd5b919050565b600060208284031215610576578081fd5b6040516020810181811067ffffffffffffffff8211171561059357fe5b6040529151825250919050565b80516001600160801b038116811461056057600080fd5b805164ffffffffff8116811461056057600080fd5b805160ff8116811461056057600080fd5b60006101808083850312156105f0578182fd5b6105f981610763565b90506106058484610565565b8152610613602084016105a0565b6020820152610624604084016105a0565b6040820152610635606084016105a0565b6060820152610646608084016105a0565b608082015261065760a084016105a0565b60a082015261066860c084016105b7565b60c082015261067960e08401610549565b60e082015261010061068c818501610549565b9082015261012061069e848201610549565b908201526101406106b0848201610549565b908201526101606106c28482016105cc565b908201529392505050565b6000602082840312156106de578081fd5b5051919050565b6001600160a01b0391909116815260200190565b90815260200190565b6000602080835283518082850152825b8181101561072e57858101830151858201604001528201610712565b8181111561073f5783604083870101525b50601f01601f1916929092016040019392505050565b60ff91909116815260200190565b60405181810167ffffffffffffffff8111828210171561077f57fe5b60405291905056fe536166654d6174683a206d756c7469706c69636174696f6e206f766572666c6f77a2646970667358221220886f696d4ae65dd749756311fca0436820314f7bc446801c907ebc041791140b64736f6c63430007060033",
  "bytecodeSha1": "204dbeb3a10d37c0cd44c7fc4d66258a8f1662fd",
  "compiler": {
    "evm_version": "istanbul",
    "optimizer": {
      "enabled": true,
      "runs": 200
    },
    "version": "0.7.6+commit.7338295f"
  },
  "contractName": "aTokenAggregator",
  "language": "Solidity",
  "natspec": {
    "kind": "dev",
    "methods": {
      "getExchangeRateStateful()": {
        "details": "Unlike compound this function call in Aave is not stateful. However we keep the modifiers here to maintain compatibility with the cTokenAggregator.",
        "notice": "Returns the current exchange rate for the aToken to the underlying"
      },
      "getExchangeRateView()": {
        "notice": "Returns the current exchange rate for the aToken to the underlying "
      }
    },
    "version": 1
  },
  "opcodes": "PUSH1 0x80 PUSH1 0x40 MSTORE CALLVALUE DUP1 ISZERO PUSH2 0x10 JUMPI PUSH1 0x0 DUP1 REVERT JUMPDEST POP PUSH1 0x4 CALLDATASIZE LT PUSH2 0x9E JUMPI PUSH1 0x0 CALLDATALOAD PUSH1 0xE0 SHR DUP1 PUSH4 0xB2FFFB04 GT PUSH2 0x66 JUMPI DUP1 PUSH4 0xB2FFFB04 EQ PUSH2 0xA3 JUMPI DUP1 PUSH4 0xD94B947E EQ PUSH2 0x108 JUMPI DUP1 PUSH4 0xDD30A666 EQ PUSH2 0x110 JUMPI DUP1 PUSH4 0xF575993B EQ PUSH2 0x118 JUMPI DUP1 PUSH4 0xFC0C546A EQ PUSH2 0x120 JUMPI PUSH2 0x9E JUMP JUMPDEST DUP1 PUSH4 0x1EE10833 EQ PUSH2 0xA3 JUMPI DUP1 PUSH4 0x313CE567 EQ PUSH2 0xC1 JUMPI DUP1 PUSH4 0x54FD4D50 EQ PUSH2 0xD6 JUMPI DUP1 PUSH4 0x6F307DC3 EQ PUSH2 0xDE JUMPI DUP1 PUSH4 0x7284E416 EQ PUSH2 0xF3 JUMPI JUMPDEST PUSH1 0x0 DUP1 REVERT JUMPDEST PUSH2 0xAB PUSH2 0x128 JUMP JUMPDEST PUSH1 0x40 MLOAD PUSH2 0xB8 SWAP2 SWAP1 PUSH2 0x6F9 JUMP JUMPDEST PUSH1 0x40 MLOAD DUP1 SWAP2 SUB SWAP1 RETURN JUMPDEST PUSH2 0xC9 PUSH2 0x137 JUMP JUMPDEST PUSH1 0x40 MLOAD PUSH2 0xB8 SWAP2 SWAP1 PUSH2 0x755 JUMP JUMPDEST PUSH2 0xAB PUSH2 0x15B JUMP JUMPDEST PUSH2 0xE6 PUSH2 0x161 JUMP JUMPDEST PUSH1 0x40 MLOAD PUSH2 0xB8 SWAP2 SWAP1 PUSH2 0x6E5 JUMP JUMPDEST PUSH2 0xFB PUSH2 0x185 JUMP JUMPDEST PUSH1 0x40 MLOAD PUSH2 0xB8 SWAP2 SWAP1 PUSH2 0x702 JUMP JUMPDEST PUSH2 0xAB PUSH2 0x212 JUMP JUMPDEST PUSH2 0xAB PUSH2 0x236 JUMP JUMPDEST PUSH2 0xE6 PUSH2 0x31F JUMP JUMPDEST PUSH2 0xE6 PUSH2 0x343 JUMP JUMPDEST PUSH1 0x0 PUSH2 0x132 PUSH2 0x367 JUMP JUMPDEST SWAP1 POP SWAP1 JUMP JUMPDEST PUSH32 0x0 DUP2 JUMP JUMPDEST PUSH1 0x0 SLOAD DUP2 JUMP JUMPDEST PUSH32 0x0 DUP2 JUMP JUMPDEST PUSH1 0x1 DUP1 SLOAD PUSH1 0x40 DUP1 MLOAD PUSH1 0x20 PUSH1 0x2 DUP5 DUP7 AND ISZERO PUSH2 0x100 MUL PUSH1 0x0 NOT ADD SWAP1 SWAP5 AND SWAP4 SWAP1 SWAP4 DIV PUSH1 0x1F DUP2 ADD DUP5 SWAP1 DIV DUP5 MUL DUP3 ADD DUP5 ADD SWAP1 SWAP3 MSTORE DUP2 DUP2 MSTORE SWAP3 SWAP2 DUP4 ADD DUP3 DUP3 DUP1 ISZERO PUSH2 0x20A JUMPI DUP1 PUSH1 0x1F LT PUSH2 0x1DF JUMPI PUSH2 0x100 DUP1 DUP4 SLOAD DIV MUL DUP4 MSTORE SWAP2 PUSH1 0x20 ADD SWAP2 PUSH2 0x20A JUMP JUMPDEST DUP3 ADD SWAP2 SWAP1 PUSH1 0x0 MSTORE PUSH1 0x20 PUSH1 0x0 KECCAK256 SWAP1 JUMPDEST DUP2 SLOAD DUP2 MSTORE SWAP1 PUSH1 0x1 ADD SWAP1 PUSH1 0x20 ADD DUP1 DUP4 GT PUSH2 0x1ED JUMPI DUP3 SWAP1 SUB PUSH1 0x1F AND DUP3 ADD SWAP2 JUMPDEST POP POP POP POP POP DUP2 JUMP JUMPDEST PUSH32 0x0 DUP2 JUMP JUMPDEST PUSH1 0x0 DUP1 PUSH32 0x0 PUSH1 0x1 PUSH1 0x1 PUSH1 0xA0 SHL SUB AND PUSH4 0x35EA6A75 PUSH32 0x0 PUSH1 0x40 MLOAD DUP3 PUSH4 0xFFFFFFFF AND PUSH1 0xE0 SHL DUP2 MSTORE PUSH1 0x4 ADD PUSH2 0x2A5 SWAP2 SWAP1 PUSH2 0x6E5 JUMP JUMPDEST PUSH2 0x180 PUSH1 0x40 MLOAD DUP1 DUP4 SUB DUP2 DUP7 DUP1 EXTCODESIZE ISZERO DUP1 ISZERO PUSH2 0x2BE JUMPI PUSH1 0x0 DUP1 REVERT JUMPDEST POP GAS STATICCALL ISZERO DUP1 ISZERO PUSH2 0x2D2 JUMPI RETURNDATASIZE PUSH1 0x0 DUP1 RETURNDATACOPY RETURNDATASIZE PUSH1 0x0 REVERT JUMPDEST POP POP POP POP PUSH1 0x40 MLOAD RETURNDATASIZE PUSH1 0x1F NOT PUSH1 0x1F DUP3 ADD AND DUP3 ADD DUP1 PUSH1 0x40 MSTORE POP DUP2 ADD SWAP1 PUSH2 0x2F6 SWAP2 SWAP1 PUSH2 0x5DD JUMP JUMPDEST PUSH1 0x60 DUP2 ADD MLOAD SWAP1 SWAP2 POP PUSH2 0x319 SWAP1 PUSH1 0x1 PUSH1 0x1 PUSH1 0x80 SHL SUB AND PUSH8 0xDE0B6B3A7640000 PUSH2 0x480 JUMP JUMPDEST SWAP2 POP POP SWAP1 JUMP JUMPDEST PUSH32 0x0 DUP2 JUMP JUMPDEST PUSH32 0x0 DUP2 JUMP JUMPDEST PUSH1 0x0 DUP1 PUSH32 0x0 PUSH1 0x1 PUSH1 0x1 PUSH1 0xA0 SHL SUB AND PUSH4 0xD15E0053 PUSH32 0x0 PUSH1 0x40 MLOAD DUP3 PUSH4 0xFFFFFFFF AND PUSH1 0xE0 SHL DUP2 MSTORE PUSH1 0x4 ADD PUSH2 0x3D6 SWAP2 SWAP1 PUSH2 0x6E5 JUMP JUMPDEST PUSH1 0x20 PUSH1 0x40 MLOAD DUP1 DUP4 SUB DUP2 DUP7 DUP1 EXTCODESIZE ISZERO DUP1 ISZERO PUSH2 0x3EE JUMPI PUSH1 0x0 DUP1 REVERT JUMPDEST POP GAS STATICCALL ISZERO DUP1 ISZERO PUSH2 0x402 JUMPI RETURNDATASIZE PUSH1 0x0 DUP1 RETURNDATACOPY RETURNDATASIZE PUSH1 0x0 REVERT JUMPDEST POP POP POP POP PUSH1 0x40 MLOAD RETURNDATASIZE PUSH1 0x1F NOT PUSH1 0x1F DUP3 ADD AND DUP3 ADD DUP1 PUSH1 0x40 MSTORE POP DUP2 ADD SWAP1 PUSH2 0x426 SWAP2 SWAP1 PUSH2 0x6CD JUMP JUMPDEST SWAP1 POP PUSH1 0x0 PUSH2 0x46A PUSH12 0x33B2E3C9FD0803CE8000000 PUSH2 0x464 DUP5 PUSH32 0x0 PUSH2 0x4E9 JUMP JUMPDEST SWAP1 PUSH2 0x480 JUMP JUMPDEST SWAP1 POP PUSH1 0x1 PUSH1 0x1 PUSH1 0xFF SHL SUB DUP2 GT ISZERO PUSH2 0x319 JUMPI PUSH1 0x0 DUP1 REVERT JUMPDEST PUSH1 0x0 DUP1 DUP3 GT PUSH2 0x4D6 JUMPI PUSH1 0x40 DUP1 MLOAD PUSH3 0x461BCD PUSH1 0xE5 SHL DUP2 MSTORE PUSH1 0x20 PUSH1 0x4 DUP3 ADD MSTORE PUSH1 0x1A PUSH1 0x24 DUP3 ADD MSTORE PUSH32 0x536166654D6174683A206469766973696F6E206279207A65726F000000000000 PUSH1 0x44 DUP3 ADD MSTORE SWAP1 MLOAD SWAP1 DUP2 SWAP1 SUB PUSH1 0x64 ADD SWAP1 REVERT JUMPDEST DUP2 DUP4 DUP2 PUSH2 0x4DF JUMPI INVALID JUMPDEST DIV SWAP1 POP JUMPDEST SWAP3 SWAP2 POP POP JUMP JUMPDEST PUSH1 0x0 DUP3 PUSH2 0x4F8 JUMPI POP PUSH1 0x0 PUSH2 0x4E3 JUMP JUMPDEST DUP3 DUP3 MUL DUP3 DUP5 DUP3 DUP2 PUSH2 0x505 JUMPI INVALID JUMPDEST DIV EQ PUSH2 0x542 JUMPI PUSH1 0x40 MLOAD PUSH3 0x461BCD PUSH1 0xE5 SHL DUP2 MSTORE PUSH1 0x4 ADD DUP1 DUP1 PUSH1 0x20 ADD DUP3 DUP2 SUB DUP3 MSTORE PUSH1 0x21 DUP2 MSTORE PUSH1 0x20 ADD DUP1 PUSH2 0x788 PUSH1 0x21 SWAP2 CODECOPY PUSH1 0x40 ADD SWAP2 POP POP PUSH1 0x40 MLOAD DUP1 SWAP2 SUB SWAP1 REVERT JUMPDEST SWAP4 SWAP3 POP POP POP JUMP JUMPDEST DUP1 MLOAD PUSH1 0x1 PUSH1 0x1 PUSH1 0xA0 SHL SUB DUP2 AND DUP2 EQ PUSH2 0x560 JUMPI PUSH1 0x0 DUP1 REVERT JUMPDEST SWAP2 SWAP1 POP JUMP JUMPDEST PUSH1 0x0 PUSH1 0x20 DUP3 DUP5 SUB SLT ISZERO PUSH2 0x576 JUMPI DUP1 DUP2 REVERT JUMPDEST PUSH1 0x40 MLOAD PUSH1 0x20 DUP2 ADD DUP2 DUP2 LT PUSH8 0xFFFFFFFFFFFFFFFF DUP3 GT OR ISZERO PUSH2 0x593 JUMPI INVALID JUMPDEST PUSH1 0x40 MSTORE SWAP2 MLOAD DUP3 MSTORE POP SWAP2 SWAP1 POP JUMP JUMPDEST DUP1 MLOAD PUSH1 0x1 PUSH1 0x1 PUSH1 0x80 SHL SUB DUP2 AND DUP2 EQ PUSH2 0x560 JUMPI PUSH1 0x0 DUP1 REVERT JUMPDEST DUP1 MLOAD PUSH5 0xFFFFFFFFFF DUP2 AND DUP2 EQ PUSH2 0x560 JUMPI PUSH1 0x0 DUP1 REVERT JUMPDEST DUP1 MLOAD PUSH1 0xFF DUP2 AND DUP2 EQ PUSH2 0x560 JUMPI PUSH1 0x0 DUP1 REVERT JUMPDEST PUSH1 0x0 PUSH2 0x180 DUP1 DUP4 DUP6 SUB SLT ISZERO PUSH2 0x5F0 JUMPI DUP2 DUP3 REVERT JUMPDEST PUSH2 0x5F9 DUP2 PUSH2 0x763 JUMP JUMPDEST SWAP1 POP PUSH2 0x605 DUP5 DUP5 PUSH2 0x565 JUMP JUMPDEST DUP2 MSTORE PUSH2 0x613 PUSH1 0x20 DUP5 ADD PUSH2 0x5A0 JUMP JUMPDEST PUSH1 0x20 DUP3 ADD MSTORE PUSH2 0x624 PUSH1 0x40 DUP5 ADD PUSH2 0x5A0 JUMP JUMPDEST PUSH1 0x40 DUP3 ADD MSTORE PUSH2 0x635 PUSH1 0x60 DUP5 ADD PUSH2 0x5A0 JUMP JUMPDEST PUSH1 0x60 DUP3 ADD MSTORE PUSH2 0x646 PUSH1 0x80 DUP5 ADD PUSH2 0x5A0 JUMP JUMPDEST PUSH1 0x80 DUP3 ADD MSTORE PUSH2 0x657 PUSH1 0xA0 DUP5 ADD PUSH2 0x5A0 JUMP JUMPDEST PUSH1 0xA0 DUP3 ADD MSTORE PUSH2 0x668 PUSH1 0xC0 DUP5 ADD PUSH2 0x5B7 JUMP JUMPDEST PUSH1 0xC0 DUP3 ADD MSTORE PUSH2 0x679 PUSH1 0xE0 DUP5 ADD PUSH2 0x549 JUMP JUMPDEST PUSH1 0xE0 DUP3 ADD MSTORE PUSH2 0x100 PUSH2 0x68C DUP2 DUP6 ADD PUSH2 0x549 JUMP JUMPDEST SWAP1 DUP3 ADD MSTORE PUSH2 0x120 PUSH2 0x69E DUP5 DUP3 ADD PUSH2 0x549 JUMP JUMPDEST SWAP1 DUP3 ADD MSTORE PUSH2 0x140 PUSH2 0x6B0 DUP5 DUP3 ADD PUSH2 0x549 JUMP JUMPDEST SWAP1 DUP3 ADD MSTORE PUSH2 0x160 PUSH2 0x6C2 DUP5 DUP3 ADD PUSH2 0x5CC JUMP JUMPDEST SWAP1 DUP3 ADD MSTORE SWAP4 SWAP3 POP POP POP JUMP JUMPDEST PUSH1 0x0 PUSH1 0x20 DUP3 DUP5 SUB SLT ISZERO PUSH2 0x6DE JUMPI DUP1 DUP2 REVERT JUMPDEST POP MLOAD SWAP2 SWAP1 POP JUMP JUMPDEST PUSH1 0x1 PUSH1 0x1 PUSH1 0xA0 SHL SUB SWAP2 SWAP1 SWAP2 AND DUP2 MSTORE PUSH1 0x20 ADD SWAP1 JUMP JUMPDEST SWAP1 DUP2 MSTORE PUSH1 0x20 ADD SWAP1 JUMP JUMPDEST PUSH1 0x0 PUSH1 0x20 DUP1 DUP4 MSTORE DUP4 MLOAD DUP1 DUP3 DUP6 ADD MSTORE DUP3 JUMPDEST DUP2 DUP2 LT ISZERO PUSH2 0x72E JUMPI DUP6 DUP2 ADD DUP4 ADD MLOAD DUP6 DUP3 ADD PUSH1 0x40 ADD MSTORE DUP3 ADD PUSH2 0x712 JUMP JUMPDEST DUP2 DUP2 GT ISZERO PUSH2 0x73F JUMPI DUP4 PUSH1 0x40 DUP4 DUP8 ADD ADD MSTORE JUMPDEST POP PUSH1 0x1F ADD PUSH1 0x1F NOT AND SWAP3 SWAP1 SWAP3 ADD PUSH1 0x40 ADD SWAP4 SWAP3 POP POP POP JUMP JUMPDEST PUSH1 0xFF SWAP2 SWAP1 SWAP2 AND DUP2 MSTORE PUSH1 0x20 ADD SWAP1 JUMP JUMPDEST PUSH1 0x40 MLOAD DUP2 DUP2 ADD PUSH8 0xFFFFFFFFFFFFFFFF DUP2 GT DUP3 DUP3 LT OR ISZERO PUSH2 0x77F JUMPI INVALID JUMPDEST PUSH1 0x40 MSTORE SWAP2 SWAP1 POP JUMP INVALID MSTORE8 PUSH2 0x6665 0x4D PUSH2 0x7468 GASPRICE KECCAK256 PUSH14 0x756C7469706C69636174696F6E20 PUSH16 0x766572666C6F77A26469706673582212 KECCAK256 DUP9 PUSH16 0x696D4AE65DD749756311FCA043682031 0x4F PUSH28 0xC446801C907EBC041791140B64736F6C634300070600330000000000 ",
  "sha1": "1a004cfd6c0790bee7dc0d738432777f5f1a3633",
  "source": "// SPDX-License-Identifier: GPL-3.0-only\npragma solidity =0.7.6;\npragma abicoder v2;\n\nimport \"../../../interfaces/notional/AssetRateAdapter.sol\";\nimport \"../../../interfaces/aave/ILendingPool.sol\";\nimport \"../../../interfaces/aave/IAToken.sol\";\nimport \"../../global/Constants.sol\";\nimport \"@openzeppelin/contracts/math/SafeMath.sol\";\nimport \"@openzeppelin/contracts/token/ERC20/ERC20.sol\";\n\ncontract aTokenAggregator is AssetRateAdapter {\n    using SafeMath for uint256;\n\n    ILendingPool public immutable LendingPool;\n    uint256 public immutable INDEX_SCALE_FACTOR;\n\n    address public override immutable underlying;\n    address public override immutable token;\n    uint8 public override immutable decimals;\n    uint256 public override version = 1;\n    string public override description;\n\n    uint256 internal constant RAY = 1e27;\n    uint256 internal constant NOTIONAL_ASSET_RATE_DECIMAL_DIFFERENCE = 1e10;\n    uint256 internal constant halfRAY = RAY / 2;\n\n    constructor(ILendingPool _lendingPool, IAToken _aToken) {\n        ERC20 underlyingERC20 = ERC20(_aToken.UNDERLYING_ASSET_ADDRESS());\n        uint8 underlyingDecimals = underlyingERC20.decimals();\n        // Prevent overflow when doing powers of 10\n        require(underlyingDecimals <= Constants.MAX_DECIMAL_PLACES);\n\n        // Set all the immutable constants\n        INDEX_SCALE_FACTOR = (10**underlyingDecimals) * NOTIONAL_ASSET_RATE_DECIMAL_DIFFERENCE;\n        // Rate is specified in this precision due to backwards compatibility with cToken asset rates\n        decimals = underlyingDecimals + 10;\n        LendingPool = _lendingPool;\n        token = address(_aToken);\n        underlying = address(underlyingERC20);\n        description = _aToken.symbol();\n    }\n\n    /** \n     * @notice Returns the current exchange rate for the aToken to the underlying\n     * @dev Unlike compound this function call in Aave is not stateful. However we keep the\n     * modifiers here to maintain compatibility with the cTokenAggregator.\n     */\n    function getExchangeRateStateful() external override returns (int256) {\n        return _getNotionalExchangeRate();\n    }\n\n    /** @notice Returns the current exchange rate for the aToken to the underlying */\n    function getExchangeRateView() external view override returns (int256) {\n        return _getNotionalExchangeRate();\n    }\n\n    function getAnnualizedSupplyRate() external view override returns (uint256) {\n        ILendingPool.ReserveData memory data = LendingPool.getReserveData(underlying);\n        // This is already the annualized supply rate in RAY. Notional expects this annualized rate in\n        // 1e9 precision so we scale it properly here. Also Aave uses 365 day years but Notional uses 360\n        // day years. We do not make an adjustment here since the effect is small (1%) and the Aave rate\n        // is variable regardless. We only use this supply rate for idiosyncratic fCash valuation at less\n        // than 3m.\n        //      currentLiquidityRate * 1e9 / 1e27\n        //      currentLiquidityRate / 1e18\n        return uint256(data.currentLiquidityRate).div(1e18);\n    }\n\n    function _getNotionalExchangeRate() private view returns (int256) {\n        uint256 index = LendingPool.getReserveNormalizedIncome(underlying);\n\n        // Aave formula to convert scaledBalanceOf to balanceOf (asset cash to underlying cash) is:\n        // balanceOf = rayMul(scaledBalanceOf, index)\n        //      index is in 1e27 precision (RAY)\n        //      balanceOf and scaledBalanceOf are in underlying decimal precision\n        //      multiplication and division round up on half\n\n        // Internally in Notional we use a calculation compatible with cToken exchange rates which\n        // normalize from 8 decimal places to the underlying decimal places:\n        // internalBalance * rate * internalPrecision / rateDecimals * underlyingPrecision\n        //      internalBalance is in 1e8 precision (internalPrecision). \n        //      rate is in 1e(18 + underlyingDecimals) precision (rateDecimals)\n        //      underlyingPrecision is the decimals of the underlying\n        //\n        // Aave exchange rates are all in 1e27 precision. In this case we convert it to the required\n        // Notional precision which is:\n        //     1e(18 + underlyingDecimals - 8) == INDEX_SCALE_FACTOR\n\n        uint256 rate = index.mul(INDEX_SCALE_FACTOR).div(RAY);\n        require(rate <= uint256(type(int256).max));\n        return int256(rate);\n    }\n}",
  "sourcePath": "contracts/external/adapters/aTokenAggregator.sol",
  "type": "contract"
}