{
  "abi": [
    {
      "inputs": [
        {
          "internalType": "contract INotionalV2",
          "name": "_notional",
          "type": "address"
        },
        {
          "internalType": "contract WETH9",
          "name": "_weth",
          "type": "address"
        }
      ],
      "stateMutability": "nonpayable",
      "type": "constructor"
    },
    {
      "anonymous": false,
      "inputs": [
        {
          "indexed": true,
          "internalType": "address",
          "name": "owner",
          "type": "address"
        },
        {
          "indexed": true,
          "internalType": "address",
          "name": "spender",
          "type": "address"
        },
        {
          "indexed": false,
          "internalType": "uint256",
          "name": "value",
          "type": "uint256"
        }
      ],
      "name": "Approval",
      "type": "event"
    },
    {
      "anonymous": false,
      "inputs": [
        {
          "indexed": true,
          "internalType": "address",
          "name": "caller",
          "type": "address"
        },
        {
          "indexed": true,
          "internalType": "address",
          "name": "owner",
          "type": "address"
        },
        {
          "indexed": false,
          "internalType": "uint256",
          "name": "assets",
          "type": "uint256"
        },
        {
          "indexed": false,
          "internalType": "uint256",
          "name": "shares",
          "type": "uint256"
        }
      ],
      "name": "Deposit",
      "type": "event"
    },
    {
      "anonymous": false,
      "inputs": [
        {
          "indexed": true,
          "internalType": "address",
          "name": "from",
          "type": "address"
        },
        {
          "indexed": true,
          "internalType": "address",
          "name": "to",
          "type": "address"
        },
        {
          "indexed": false,
          "internalType": "uint256",
          "name": "value",
          "type": "uint256"
        }
      ],
      "name": "Transfer",
      "type": "event"
    },
    {
      "anonymous": false,
      "inputs": [
        {
          "indexed": true,
          "internalType": "address",
          "name": "caller",
          "type": "address"
        },
        {
          "indexed": true,
          "internalType": "address",
          "name": "receiver",
          "type": "address"
        },
        {
          "indexed": true,
          "internalType": "address",
          "name": "owner",
          "type": "address"
        },
        {
          "indexed": false,
          "internalType": "uint256",
          "name": "assets",
          "type": "uint256"
        },
        {
          "indexed": false,
          "internalType": "uint256",
          "name": "shares",
          "type": "uint256"
        }
      ],
      "name": "Withdraw",
      "type": "event"
    },
    {
      "inputs": [],
      "name": "NotionalV2",
      "outputs": [
        {
          "internalType": "contract INotionalV2",
          "name": "",
          "type": "address"
        }
      ],
      "stateMutability": "view",
      "type": "function"
    },
    {
      "inputs": [],
      "name": "WETH",
      "outputs": [
        {
          "internalType": "contract WETH9",
          "name": "",
          "type": "address"
        }
      ],
      "stateMutability": "view",
      "type": "function"
    },
    {
      "inputs": [
        {
          "internalType": "address",
          "name": "owner",
          "type": "address"
        },
        {
          "internalType": "address",
          "name": "spender",
          "type": "address"
        }
      ],
      "name": "allowance",
      "outputs": [
        {
          "internalType": "uint256",
          "name": "",
          "type": "uint256"
        }
      ],
      "stateMutability": "view",
      "type": "function"
    },
    {
      "inputs": [
        {
          "internalType": "address",
          "name": "spender",
          "type": "address"
        },
        {
          "internalType": "uint256",
          "name": "amount",
          "type": "uint256"
        }
      ],
      "name": "approve",
      "outputs": [
        {
          "internalType": "bool",
          "name": "",
          "type": "bool"
        }
      ],
      "stateMutability": "nonpayable",
      "type": "function"
    },
    {
      "inputs": [],
      "name": "asset",
      "outputs": [
        {
          "internalType": "address",
          "name": "",
          "type": "address"
        }
      ],
      "stateMutability": "view",
      "type": "function"
    },
    {
      "inputs": [
        {
          "internalType": "address",
          "name": "account",
          "type": "address"
        }
      ],
      "name": "balanceOf",
      "outputs": [
        {
          "internalType": "uint256",
          "name": "",
          "type": "uint256"
        }
      ],
      "stateMutability": "view",
      "type": "function"
    },
    {
      "inputs": [
        {
          "internalType": "uint256",
          "name": "shares",
          "type": "uint256"
        }
      ],
      "name": "convertToAssets",
      "outputs": [
        {
          "internalType": "uint256",
          "name": "assets",
          "type": "uint256"
        }
      ],
      "stateMutability": "view",
      "type": "function"
    },
    {
      "inputs": [
        {
          "internalType": "uint256",
          "name": "assets",
          "type": "uint256"
        }
      ],
      "name": "convertToShares",
      "outputs": [
        {
          "internalType": "uint256",
          "name": "shares",
          "type": "uint256"
        }
      ],
      "stateMutability": "view",
      "type": "function"
    },
    {
      "inputs": [],
      "name": "decimals",
      "outputs": [
        {
          "internalType": "uint8",
          "name": "",
          "type": "uint8"
        }
      ],
      "stateMutability": "pure",
      "type": "function"
    },
    {
      "inputs": [
        {
          "internalType": "address",
          "name": "spender",
          "type": "address"
        },
        {
          "internalType": "uint256",
          "name": "subtractedValue",
          "type": "uint256"
        }
      ],
      "name": "decreaseAllowance",
      "outputs": [
        {
          "internalType": "bool",
          "name": "",
          "type": "bool"
        }
      ],
      "stateMutability": "nonpayable",
      "type": "function"
    },
    {
      "inputs": [
        {
          "internalType": "uint256",
          "name": "assets",
          "type": "uint256"
        },
        {
          "internalType": "address",
          "name": "receiver",
          "type": "address"
        }
      ],
      "name": "deposit",
      "outputs": [
        {
          "internalType": "uint256",
          "name": "",
          "type": "uint256"
        }
      ],
      "stateMutability": "nonpayable",
      "type": "function"
    },
    {
      "inputs": [],
      "name": "getAssetToken",
      "outputs": [
        {
          "internalType": "contract IERC20",
          "name": "assetToken",
          "type": "address"
        },
        {
          "internalType": "int256",
          "name": "underlyingPrecision",
          "type": "int256"
        },
        {
          "internalType": "enum TokenType",
          "name": "tokenType",
          "type": "uint8"
        }
      ],
      "stateMutability": "view",
      "type": "function"
    },
    {
      "inputs": [],
      "name": "getBalances",
      "outputs": [
        {
          "internalType": "int256",
          "name": "cashBalance",
          "type": "int256"
        },
        {
          "internalType": "uint256",
          "name": "fCashBalance",
          "type": "uint256"
        }
      ],
      "stateMutability": "view",
      "type": "function"
    },
    {
      "inputs": [],
      "name": "getCurrencyId",
      "outputs": [
        {
          "internalType": "uint16",
          "name": "currencyId",
          "type": "uint16"
        }
      ],
      "stateMutability": "view",
      "type": "function"
    },
    {
      "inputs": [],
      "name": "getDecodedID",
      "outputs": [
        {
          "internalType": "uint16",
          "name": "currencyId",
          "type": "uint16"
        },
        {
          "internalType": "uint40",
          "name": "maturity",
          "type": "uint40"
        }
      ],
      "stateMutability": "view",
      "type": "function"
    },
    {
      "inputs": [],
      "name": "getMarketIndex",
      "outputs": [
        {
          "internalType": "uint8",
          "name": "",
          "type": "uint8"
        }
      ],
      "stateMutability": "view",
      "type": "function"
    },
    {
      "inputs": [],
      "name": "getMaturity",
      "outputs": [
        {
          "internalType": "uint40",
          "name": "maturity",
          "type": "uint40"
        }
      ],
      "stateMutability": "view",
      "type": "function"
    },
    {
      "inputs": [
        {
          "internalType": "bool",
          "name": "useUnderlying",
          "type": "bool"
        }
      ],
      "name": "getToken",
      "outputs": [
        {
          "internalType": "contract IERC20",
          "name": "token",
          "type": "address"
        },
        {
          "internalType": "bool",
          "name": "isETH",
          "type": "bool"
        }
      ],
      "stateMutability": "view",
      "type": "function"
    },
    {
      "inputs": [],
      "name": "getTotalFCashAvailable",
      "outputs": [
        {
          "internalType": "uint256",
          "name": "",
          "type": "uint256"
        }
      ],
      "stateMutability": "view",
      "type": "function"
    },
    {
      "inputs": [],
      "name": "getUnderlyingToken",
      "outputs": [
        {
          "internalType": "contract IERC20",
          "name": "underlyingToken",
          "type": "address"
        },
        {
          "internalType": "int256",
          "name": "underlyingPrecision",
          "type": "int256"
        }
      ],
      "stateMutability": "view",
      "type": "function"
    },
    {
      "inputs": [],
      "name": "getfCashId",
      "outputs": [
        {
          "internalType": "uint256",
          "name": "",
          "type": "uint256"
        }
      ],
      "stateMutability": "view",
      "type": "function"
    },
    {
      "inputs": [],
      "name": "hasMatured",
      "outputs": [
        {
          "internalType": "bool",
          "name": "",
          "type": "bool"
        }
      ],
      "stateMutability": "view",
      "type": "function"
    },
    {
      "inputs": [
        {
          "internalType": "address",
          "name": "spender",
          "type": "address"
        },
        {
          "internalType": "uint256",
          "name": "addedValue",
          "type": "uint256"
        }
      ],
      "name": "increaseAllowance",
      "outputs": [
        {
          "internalType": "bool",
          "name": "",
          "type": "bool"
        }
      ],
      "stateMutability": "nonpayable",
      "type": "function"
    },
    {
      "inputs": [
        {
          "internalType": "uint16",
          "name": "currencyId",
          "type": "uint16"
        },
        {
          "internalType": "uint40",
          "name": "maturity",
          "type": "uint40"
        }
      ],
      "name": "initialize",
      "outputs": [],
      "stateMutability": "nonpayable",
      "type": "function"
    },
    {
      "inputs": [
        {
          "internalType": "address",
          "name": "",
          "type": "address"
        }
      ],
      "name": "maxDeposit",
      "outputs": [
        {
          "internalType": "uint256",
          "name": "",
          "type": "uint256"
        }
      ],
      "stateMutability": "view",
      "type": "function"
    },
    {
      "inputs": [
        {
          "internalType": "address",
          "name": "",
          "type": "address"
        }
      ],
      "name": "maxMint",
      "outputs": [
        {
          "internalType": "uint256",
          "name": "",
          "type": "uint256"
        }
      ],
      "stateMutability": "view",
      "type": "function"
    },
    {
      "inputs": [
        {
          "internalType": "address",
          "name": "owner",
          "type": "address"
        }
      ],
      "name": "maxRedeem",
      "outputs": [
        {
          "internalType": "uint256",
          "name": "",
          "type": "uint256"
        }
      ],
      "stateMutability": "view",
      "type": "function"
    },
    {
      "inputs": [
        {
          "internalType": "address",
          "name": "owner",
          "type": "address"
        }
      ],
      "name": "maxWithdraw",
      "outputs": [
        {
          "internalType": "uint256",
          "name": "",
          "type": "uint256"
        }
      ],
      "stateMutability": "view",
      "type": "function"
    },
    {
      "inputs": [
        {
          "internalType": "uint256",
          "name": "shares",
          "type": "uint256"
        },
        {
          "internalType": "address",
          "name": "receiver",
          "type": "address"
        }
      ],
      "name": "mint",
      "outputs": [
        {
          "internalType": "uint256",
          "name": "",
          "type": "uint256"
        }
      ],
      "stateMutability": "nonpayable",
      "type": "function"
    },
    {
      "inputs": [
        {
          "internalType": "uint256",
          "name": "depositAmountExternal",
          "type": "uint256"
        },
        {
          "internalType": "uint88",
          "name": "fCashAmount",
          "type": "uint88"
        },
        {
          "internalType": "address",
          "name": "receiver",
          "type": "address"
        },
        {
          "internalType": "uint32",
          "name": "minImpliedRate",
          "type": "uint32"
        }
      ],
      "name": "mintViaAsset",
      "outputs": [],
      "stateMutability": "nonpayable",
      "type": "function"
    },
    {
      "inputs": [
        {
          "internalType": "uint256",
          "name": "depositAmountExternal",
          "type": "uint256"
        },
        {
          "internalType": "uint88",
          "name": "fCashAmount",
          "type": "uint88"
        },
        {
          "internalType": "address",
          "name": "receiver",
          "type": "address"
        },
        {
          "internalType": "uint32",
          "name": "minImpliedRate",
          "type": "uint32"
        }
      ],
      "name": "mintViaUnderlying",
      "outputs": [],
      "stateMutability": "nonpayable",
      "type": "function"
    },
    {
      "inputs": [],
      "name": "name",
      "outputs": [
        {
          "internalType": "string",
          "name": "",
          "type": "string"
        }
      ],
      "stateMutability": "view",
      "type": "function"
    },
    {
      "inputs": [
        {
          "internalType": "address",
          "name": "_operator",
          "type": "address"
        },
        {
          "internalType": "address",
          "name": "_from",
          "type": "address"
        },
        {
          "internalType": "uint256",
          "name": "_id",
          "type": "uint256"
        },
        {
          "internalType": "uint256",
          "name": "_value",
          "type": "uint256"
        },
        {
          "internalType": "bytes",
          "name": "_data",
          "type": "bytes"
        }
      ],
      "name": "onERC1155Received",
      "outputs": [
        {
          "internalType": "bytes4",
          "name": "",
          "type": "bytes4"
        }
      ],
      "stateMutability": "nonpayable",
      "type": "function"
    },
    {
      "inputs": [
        {
          "internalType": "uint256",
          "name": "assets",
          "type": "uint256"
        }
      ],
      "name": "previewDeposit",
      "outputs": [
        {
          "internalType": "uint256",
          "name": "",
          "type": "uint256"
        }
      ],
      "stateMutability": "view",
      "type": "function"
    },
    {
      "inputs": [
        {
          "internalType": "uint256",
          "name": "shares",
          "type": "uint256"
        }
      ],
      "name": "previewMint",
      "outputs": [
        {
          "internalType": "uint256",
          "name": "",
          "type": "uint256"
        }
      ],
      "stateMutability": "view",
      "type": "function"
    },
    {
      "inputs": [
        {
          "internalType": "uint256",
          "name": "shares",
          "type": "uint256"
        }
      ],
      "name": "previewRedeem",
      "outputs": [
        {
          "internalType": "uint256",
          "name": "assets",
          "type": "uint256"
        }
      ],
      "stateMutability": "view",
      "type": "function"
    },
    {
      "inputs": [
        {
          "internalType": "uint256",
          "name": "assets",
          "type": "uint256"
        }
      ],
      "name": "previewWithdraw",
      "outputs": [
        {
          "internalType": "uint256",
          "name": "shares",
          "type": "uint256"
        }
      ],
      "stateMutability": "view",
      "type": "function"
    },
    {
      "inputs": [
        {
          "internalType": "uint256",
          "name": "fCashId",
          "type": "uint256"
        },
        {
          "internalType": "address",
          "name": "receiver",
          "type": "address"
        }
      ],
      "name": "recoverInvalidfCash",
      "outputs": [],
      "stateMutability": "nonpayable",
      "type": "function"
    },
    {
      "inputs": [
        {
          "internalType": "uint256",
          "name": "shares",
          "type": "uint256"
        },
        {
          "internalType": "address",
          "name": "receiver",
          "type": "address"
        },
        {
          "internalType": "address",
          "name": "owner",
          "type": "address"
        }
      ],
      "name": "redeem",
      "outputs": [
        {
          "internalType": "uint256",
          "name": "",
          "type": "uint256"
        }
      ],
      "stateMutability": "nonpayable",
      "type": "function"
    },
    {
      "inputs": [
        {
          "internalType": "uint256",
          "name": "amount",
          "type": "uint256"
        },
        {
          "components": [
            {
              "internalType": "bool",
              "name": "redeemToUnderlying",
              "type": "bool"
            },
            {
              "internalType": "bool",
              "name": "transferfCash",
              "type": "bool"
            },
            {
              "internalType": "address",
              "name": "receiver",
              "type": "address"
            },
            {
              "internalType": "uint32",
              "name": "maxImpliedRate",
              "type": "uint32"
            }
          ],
          "internalType": "struct IWrappedfCash.RedeemOpts",
          "name": "opts",
          "type": "tuple"
        }
      ],
      "name": "redeem",
      "outputs": [],
      "stateMutability": "nonpayable",
      "type": "function"
    },
    {
      "inputs": [
        {
          "internalType": "uint256",
          "name": "amount",
          "type": "uint256"
        },
        {
          "internalType": "address",
          "name": "receiver",
          "type": "address"
        },
        {
          "internalType": "uint32",
          "name": "maxImpliedRate",
          "type": "uint32"
        }
      ],
      "name": "redeemToAsset",
      "outputs": [],
      "stateMutability": "nonpayable",
      "type": "function"
    },
    {
      "inputs": [
        {
          "internalType": "uint256",
          "name": "amount",
          "type": "uint256"
        },
        {
          "internalType": "address",
          "name": "receiver",
          "type": "address"
        },
        {
          "internalType": "uint32",
          "name": "maxImpliedRate",
          "type": "uint32"
        }
      ],
      "name": "redeemToUnderlying",
      "outputs": [],
      "stateMutability": "nonpayable",
      "type": "function"
    },
    {
      "inputs": [],
      "name": "symbol",
      "outputs": [
        {
          "internalType": "string",
          "name": "",
          "type": "string"
        }
      ],
      "stateMutability": "view",
      "type": "function"
    },
    {
      "inputs": [],
      "name": "totalAssets",
      "outputs": [
        {
          "internalType": "uint256",
          "name": "",
          "type": "uint256"
        }
      ],
      "stateMutability": "view",
      "type": "function"
    },
    {
      "inputs": [],
      "name": "totalSupply",
      "outputs": [
        {
          "internalType": "uint256",
          "name": "",
          "type": "uint256"
        }
      ],
      "stateMutability": "view",
      "type": "function"
    },
    {
      "inputs": [
        {
          "internalType": "address",
          "name": "to",
          "type": "address"
        },
        {
          "internalType": "uint256",
          "name": "amount",
          "type": "uint256"
        }
      ],
      "name": "transfer",
      "outputs": [
        {
          "internalType": "bool",
          "name": "",
          "type": "bool"
        }
      ],
      "stateMutability": "nonpayable",
      "type": "function"
    },
    {
      "inputs": [
        {
          "internalType": "address",
          "name": "from",
          "type": "address"
        },
        {
          "internalType": "address",
          "name": "to",
          "type": "address"
        },
        {
          "internalType": "uint256",
          "name": "amount",
          "type": "uint256"
        }
      ],
      "name": "transferFrom",
      "outputs": [
        {
          "internalType": "bool",
          "name": "",
          "type": "bool"
        }
      ],
      "stateMutability": "nonpayable",
      "type": "function"
    },
    {
      "inputs": [
        {
          "internalType": "uint256",
          "name": "assets",
          "type": "uint256"
        },
        {
          "internalType": "address",
          "name": "receiver",
          "type": "address"
        },
        {
          "internalType": "address",
          "name": "owner",
          "type": "address"
        }
      ],
      "name": "withdraw",
      "outputs": [
        {
          "internalType": "uint256",
          "name": "",
          "type": "uint256"
        }
      ],
      "stateMutability": "nonpayable",
      "type": "function"
    }
  ],
  "bytecode": {
    "object": "0x60c06040523480156200001157600080fd5b5060405162005e8038038062005e80833981016040819052620000349162000168565b81818181600060019054906101000a900460ff166200005a5760005460ff161562000064565b6200006462000122565b620000cc5760405162461bcd60e51b815260206004820152602e60248201527f496e697469616c697a61626c653a20636f6e747261637420697320616c72656160448201526d191e481a5b9a5d1a585b1a5e995960921b606482015260840160405180910390fd5b600054610100900460ff16158015620000ef576000805461ffff19166101011790555b6001600160a01b03808416608052821660a052801562000115576000805461ff00191690555b50505050505050620001a7565b60006200013a306200014060201b620021e71760201c565b15905090565b6001600160a01b03163b151590565b6001600160a01b03811681146200016557600080fd5b50565b600080604083850312156200017c57600080fd5b825162000189816200014f565b60208401519092506200019c816200014f565b809150509250929050565b60805160a051615ba9620002d7600039600081816105430152818161112a01528181612db801528181612e3c01528181613f6a0152613fff0152600081816103880152818161070c015281816107d60152818161088901528181610a8001528181610bda01528181610d5c0152818161102b015281816110900152818161123d01528181611537015281816115c70152818161194601528181611a1801528181611ab001528181611b3401528181611c2201528181611d7401528181611e3d01528181611ed101528181611f67015281816121340152818161224d0152818161238a0152818161244501528181612cc301528181612f5501528181613025015281816131a20152818161324a01528181613aa6015281816142a10152818161444901526144bc0152615ba96000f3fe608060405234801561001057600080fd5b506004361061029f5760003560e01c8063745d08d911610167578063cb803ceb116100ce578063dd62ed3e11610087578063dd62ed3e14610633578063e16695b51461066c578063ee719bc81461068a578063ef8b30f7146106b1578063f23a6e61146106c4578063f8eef10f146106f057600080fd5b8063cb803ceb146105c4578063ce96cb77146105cc578063cf387fed146105df578063d7fd4aad146105fa578063d84878b81461060d578063d905777e1461062057600080fd5b8063ad5c464811610120578063ad5c46481461053e578063b3d7f6b914610565578063b460af9414610578578063ba0876521461058b578063c63d75b61461059e578063c6e6f592146105b157600080fd5b8063745d08d9146104e257806394bf804d146104f557806395d89b4114610508578063a109329514610510578063a457c2d714610518578063a9059cbb1461052b57600080fd5b806323b872dd1161020b578063402d267d116101c4578063402d267d1461042657806348d8f98d146104395780634cdad5061461046157806351489551146104745780636e553f65146104a657806370a08231146104b957600080fd5b806323b872dd146103c257806329cf1405146103d5578063313ce567146103e857806338d52e0f146103fd57806339509351146104055780633d3192cb1461041857600080fd5b80630a0fbca41161025d5780630a0fbca4146103385780630a28a477146103405780630db8481c14610353578063152b838c1461036857806318160ddd1461037b57806319b53d351461038357600080fd5b8062113e08146102a457806301e1d114146102c65780630558d500146102dc57806306fdde03146102ed57806307a2d13a14610302578063095ea7b314610315575b600080fd5b6102ac610707565b604080519283526020830191909152015b60405180910390f35b6102ce61084e565b6040519081526020016102bd565b6065546001600160401b03166102ce565b6102f5610964565b6040516102bd9190614959565b6102ce61031036600461498c565b6109f6565b6103286103233660046149bd565b610a44565b60405190151581526020016102bd565b6102ce610a5c565b6102ce61034e36600461498c565b610b6b565b610366610361366004614a12565b610c62565b005b610366610376366004614a86565b610c9c565b6035546102ce565b6103aa7f000000000000000000000000000000000000000000000000000000000000000081565b6040516001600160a01b0390911681526020016102bd565b6103286103d0366004614abf565b6110d4565b6103666103e3366004614a12565b6110f8565b60085b60405160ff90911681526020016102bd565b6103aa61110a565b6103286104133660046149bd565b611150565b610366610361366004614b00565b6102ce610434366004614b3e565b61118f565b6104416111ad565b6040805161ffff909316835264ffffffffff9091166020830152016102bd565b6102ce61046f36600461498c565b6111db565b610487610482366004614b69565b6112bc565b604080516001600160a01b0390931683529015156020830152016102bd565b6102ce6104b4366004614b86565b6112f4565b6102ce6104c7366004614b3e565b6001600160a01b031660009081526033602052604090205490565b6103666104f0366004614b00565b611365565b6102ce610503366004614b86565b6113a5565b6102f5611403565b610328611412565b6103286105263660046149bd565b61142b565b6103286105393660046149bd565b6114bd565b6103aa7f000000000000000000000000000000000000000000000000000000000000000081565b6102ce61057336600461498c565b6114cb565b6102ce610586366004614bab565b6115af565b6102ce610599366004614bab565b6116b1565b6102ce6105ac366004614b3e565b61183d565b6102ce6105bf36600461498c565b61186a565b6103eb6118c6565b6102ce6105da366004614b3e565b6118f8565b6105e761191a565b60405161ffff90911681526020016102bd565b610366610608366004614b86565b611944565b61036661061b366004614ca1565b611bc4565b6102ce61062e366004614b3e565b611bd3565b6102ce610641366004614d43565b6001600160a01b03918216600090815260346020908152604080832093909416825291909152205490565b610674611bf1565b60405164ffffffffff90911681526020016102bd565b610692611c1a565b604080516001600160a01b0390931683526020830191909152016102bd565b6102ce6106bf36600461498c565b611d01565b6106d76106d2366004614d71565b611df3565b6040516001600160e01b031990911681526020016102bd565b6106f861212c565b6040516102bd93929190614e30565b6000807f00000000000000000000000000000000000000000000000000000000000000006001600160a01b031663fc1b134561074161191a565b6040516001600160e01b031960e084901b16815261ffff9091166004820152306024820152604401606060405180830381865afa158015610786573d6000803e3d6000fd5b505050506040513d601f19601f820116820180604052508101906107aa9190614e65565b5050606554604051627eeac760e11b81523060048201526001600160401b0390911660248201529092507f00000000000000000000000000000000000000000000000000000000000000006001600160a01b03169062fdd58e90604401602060405180830381865afa158015610824573d6000803e3d6000fd5b505050506040513d601f19601f820116820180604052508101906108489190614e93565b90509091565b6000610858611412565b1561094a57600061087061086b60355490565b6121f6565b90506001600160ff1b03811061088557600080fd5b60007f00000000000000000000000000000000000000000000000000000000000000006001600160a01b0316636ebbf1746108be61191a565b6040516001600160e01b031960e084901b16815261ffff90911660048201526024810185905260016044820152606401602060405180830381865afa15801561090b573d6000803e3d6000fd5b505050506040513d601f19601f8201168201806040525081019061092f9190614e93565b90506000811215610941576000610943565b805b9250505090565b600061095d61095860355490565b61230d565b9392505050565b60606036805461097390614eac565b80601f016020809104026020016040519081016040528092919081815260200182805461099f90614eac565b80156109ec5780601f106109c1576101008083540402835291602001916109ec565b820191906000526020600020905b8154815290600101906020018083116109cf57829003601f168201915b5050505050905090565b600080610a0260355490565b905080600003610a1e57610a158361230d565b9250610a3e9050565b80610a2761084e565b610a319085614ef6565b610a3b9190614f2b565b91505b50919050565b600033610a528185856124d5565b5060019392505050565b600080610a676118c6565b90508060ff16600003610a7c57600091505090565b60007f00000000000000000000000000000000000000000000000000000000000000006001600160a01b031663497cf7e3610ab561191a565b6040516001600160e01b031960e084901b16815261ffff9091166004820152602401600060405180830381865afa158015610af4573d6000803e3d6000fd5b505050506040513d6000823e601f3d908101601f19168201604052610b1c9190810190614f62565b90508160ff1681511115610b2f57600080fd5b600081610b3d60018561504f565b60ff1681518110610b5057610b50615072565b60200260200101516040015190506000811361095d57600080fd5b6000610b75611412565b15610b8957610b838261186a565b92915050565b600080610b946111ad565b60405163bac9e8b160e01b815261ffff831660048201526024810187905264ffffffffff8216604482015260006064820152426084820152600160a482015291935091507f00000000000000000000000000000000000000000000000000000000000000006001600160a01b03169063bac9e8b19060c401606060405180830381865afa158015610c29573d6000803e3d6000fd5b505050506040513d601f19601f82011682018060405250810190610c4d9190615099565b50506001600160581b0316925050505b919050565b60405162461bcd60e51b815260206004820152600a60248201526911195c1c9958d85d195960b21b60448201526064015b60405180910390fd5b600054610100900460ff16610cb75760005460ff1615610cbb565b303b155b610d1e5760405162461bcd60e51b815260206004820152602e60248201527f496e697469616c697a61626c653a20636f6e747261637420697320616c72656160448201526d191e481a5b9a5d1a585b1a5e995960921b6064820152608401610c93565b600054610100900460ff16158015610d40576000805461ffff19166101011790555b60405163d4ccb0ed60e01b815261ffff841660048201526000907f00000000000000000000000000000000000000000000000000000000000000006001600160a01b03169063d4ccb0ed90602401600060405180830381865afa158015610dab573d6000803e3d6000fd5b505050506040513d6000823e601f3d908101601f19168201604052610dd39190810190615144565b805190915060ff16610e1a5760405162461bcd60e51b815260206004820152601060248201526f496e76616c69642063757272656e637960801b6044820152606401610c93565b428364ffffffffff1611610e635760405162461bcd60e51b815260206004820152601060248201526f496e76616c6964206d6174757269747960801b6044820152606401610c93565b8051610e7a9060ff1664ffffffffff8516426125f9565b610eb95760405162461bcd60e51b815260206004820152601060248201526f496e76616c6964206d6174757269747960801b6044820152606401610c93565b6000610ed261ffff861664ffffffffff86166001612649565b90506001600160401b03811115610ee857600080fd5b6065805467ffffffffffffffff19166001600160401b0383161790556000610f0e611c1a565b5090506000610f1b61212c565b50909150600090506001600160a01b03831615610f9d57826001600160a01b03166395d89b416040518163ffffffff1660e01b8152600401600060405180830381865afa158015610f70573d6000803e3d6000fd5b505050506040513d6000823e601f3d908101601f19168201604052610f989190810190615275565b610fba565b6040518060400160405280600381526020016208aa8960eb1b8152505b90506000610fce8864ffffffffff166126a4565b905061101c8282604051602001610fe69291906152ff565b6040516020818303038152906040528383604051602001611008929190615352565b6040516020818303038152906040526127a4565b6110526001600160a01b0384167f00000000000000000000000000000000000000000000000000000000000000006000196127d5565b836001600160a01b0316836001600160a01b03161415801561107c57506001600160a01b03841615155b156110b7576110b76001600160a01b0385167f00000000000000000000000000000000000000000000000000000000000000006000196127d5565b50505050505080156110cf576000805461ff00191690555b505050565b6000336110e285828561291d565b6110ed8585856129a9565b506001949350505050565b61110484848484612b77565b50505050565b600080600061111960016112bc565b91509150806111285781610943565b7f00000000000000000000000000000000000000000000000000000000000000009250505090565b3360008181526034602090815260408083206001600160a01b0387168452909152812054909190610a52908290869061118a90879061539c565b6124d5565b6000611199611412565b6111a557600019610b83565b600092915050565b60655460009081906111d1906001600160401b0316603081901c91600882901c9190565b5090939092509050565b60006111e5611412565b156111f357610b83826109f6565b6000806111fe6111ad565b60405163416a158760e01b815261ffff831660048201526024810187905264ffffffffff821660448201526000606482015242608482015291935091507f00000000000000000000000000000000000000000000000000000000000000006001600160a01b03169063416a15879060a401608060405180830381865afa15801561128c573d6000803e3d6000fd5b505050506040513d601f19601f820116820180604052508101906112b091906153b4565b50919695505050505050565b60008082156112d5576112cd611c1a565b5091506112e3565b6112dd61212c565b50909250505b50916001600160a01b038316159150565b60008061130084611d01565b90506113178461130f836130c2565b856000612b77565b60408051858152602081018390526001600160a01b0385169133917fdcbc1c05240f31ff3ad067ef1ee35ce4997762752e3a095284754544f4c709d791015b60405180910390a39392505050565b6110cf33846040518060800160405280600115158152602001600015158152602001866001600160a01b031681526020018563ffffffff168152506130dc565b6000806113b1846114cb565b90506113c08161130f866130c2565b60408051828152602081018690526001600160a01b0385169133917fdcbc1c05240f31ff3ad067ef1ee35ce4997762752e3a095284754544f4c709d79101611356565b60606037805461097390614eac565b60004261141d611bf1565b64ffffffffff161115905090565b3360008181526034602090815260408083206001600160a01b0387168452909152812054909190838110156114b05760405162461bcd60e51b815260206004820152602560248201527f45524332303a2064656372656173656420616c6c6f77616e63652062656c6f77604482015264207a65726f60d81b6064820152608401610c93565b6110ed82868684036124d5565b600033610a528185856129a9565b60006114d5611412565b156114e257506000919050565b6000806114ed6111ad565b60405163aaae47b560e01b815261ffff831660048201526024810187905264ffffffffff821660448201526000606482018190524260848301529294509092506001600160a01b037f0000000000000000000000000000000000000000000000000000000000000000169063aaae47b59060a401608060405180830381865afa15801561157e573d6000803e3d6000fd5b505050506040513d601f19601f820116820180604052508101906115a291906153b4565b5091979650505050505050565b60405163f667f89760e01b81523060048201526000907f00000000000000000000000000000000000000000000000000000000000000006001600160a01b03169063f667f89790602401600060405180830381600087803b15801561161357600080fd5b505af1158015611627573d6000803e3d6000fd5b50505050600061163685610b6b565b9050336001600160a01b038416146116535761165383338361291d565b61165e818585613306565b60408051868152602081018390526001600160a01b03808616929087169133917ffbde797d201c681b91056529119e0b02407c7bb96a4a2c75c01fc9667232c8db910160405180910390a4949350505050565b6000806116bc61110a565b6040516370a0823160e01b81526001600160a01b0386811660048301529192506000918316906370a0823190602401602060405180830381865afa158015611708573d6000803e3d6000fd5b505050506040513d601f19601f8201168201806040525081019061172c9190614e93565b9050336001600160a01b038516146117495761174984338861291d565b611754868686613306565b6040516370a0823160e01b81526001600160a01b038681166004830152600091908416906370a0823190602401602060405180830381865afa15801561179e573d6000803e3d6000fd5b505050506040513d601f19601f820116820180604052508101906117c29190614e93565b905060006117d083836153f1565b9050856001600160a01b0316876001600160a01b0316336001600160a01b03167ffbde797d201c681b91056529119e0b02407c7bb96a4a2c75c01fc9667232c8db848c60405161182a929190918252602082015260400190565b60405180910390a4979650505050505050565b6000611847611412565b611858576001600160581b0361185b565b60005b6001600160581b031692915050565b60008061187660355490565b9050806000036118b457600061188f6305f5e10061230d565b91508190506118a26305f5e10086614ef6565b6118ac9190614f2b565b949350505050565b6118bc61084e565b610a318285614ef6565b60008060006118e560076118d8611bf1565b64ffffffffff1642613347565b915091508015610a3e5760009250505090565b6001600160a01b038116600090815260336020526040812054610b8390610b6b565b60655460009061193c906001600160401b0316603081901c91600882901c9190565b509092915050565b7f00000000000000000000000000000000000000000000000000000000000000006001600160a01b0316638da5cb5b6040518163ffffffff1660e01b8152600401602060405180830381865afa1580156119a2573d6000803e3d6000fd5b505050506040513d601f19601f820116820180604052508101906119c69190615408565b6001600160a01b0316336001600160a01b0316146119e357600080fd5b6065546001600160401b031682036119fa57600080fd5b604051627eeac760e11b8152306004820152602481018390526000907f00000000000000000000000000000000000000000000000000000000000000006001600160a01b03169062fdd58e90604401602060405180830381865afa158015611a66573d6000803e3d6000fd5b505050506040513d601f19601f82011682018060405250810190611a8a9190614e93565b905060008111611a9957600080fd5b604051637921219560e11b81526001600160a01b037f0000000000000000000000000000000000000000000000000000000000000000169063f242432a90611aeb903090869088908790600401615425565b600060405180830381600087803b158015611b0557600080fd5b505af1158015611b19573d6000803e3d6000fd5b505060405163b0de221760e01b8152306004820152600092507f00000000000000000000000000000000000000000000000000000000000000006001600160a01b0316915063b0de22179060240160a060405180830381865afa158015611b84573d6000803e3d6000fd5b505050506040513d601f19601f82011682018060405250810190611ba8919061545d565b60208101519091506001600160f81b0319161561110457600080fd5b611bcf3383836130dc565b5050565b6001600160a01b038116600090815260336020526040812054610b83565b606554600090611c13906001600160401b0316603081901c91600882901c9190565b5092915050565b6000806000807f00000000000000000000000000000000000000000000000000000000000000006001600160a01b0316634ebad18e611c5761191a565b6040516001600160e01b031960e084901b16815261ffff909116600482015260240161014060405180830381865afa158015611c97573d6000803e3d6000fd5b505050506040513d601f19601f82011682018060405250810190611cbb91906155a1565b9092509050600482606001516005811115611cd857611cd8614e1a565b03611cef5750805160409091015190939092509050565b80516040909101519094909350915050565b6000611d0b611412565b15611d1857506000919050565b600080611d236111ad565b604051631f0750c160e31b815261ffff831660048201526024810187905264ffffffffff82166044820152600060648201819052426084830152600160a48301529294509092506001600160a01b037f0000000000000000000000000000000000000000000000000000000000000000169063f83a86089060c401606060405180830381865afa158015611dbb573d6000803e3d6000fd5b505050506040513d601f19601f82011682018060405250810190611ddf9190615099565b50506001600160581b031695945050505050565b6000600260935403611e175760405162461bcd60e51b8152600401610c93906155d7565b60026093556000611e306065546001600160401b031690565b9050336001600160a01b037f00000000000000000000000000000000000000000000000000000000000000001614611e7a5760405162461bcd60e51b8152600401610c939061560e565b808614611e995760405162461bcd60e51b8152600401610c939061560e565b60008513611eb95760405162461bcd60e51b8152600401610c939061560e565b60405163b0de221760e01b81523060048201526000907f00000000000000000000000000000000000000000000000000000000000000006001600160a01b03169063b0de22179060240160a060405180830381865afa158015611f20573d6000803e3d6000fd5b505050506040513d601f19601f82011682018060405250810190611f44919061545d565b604051635a9b7fdb60e11b81523060048201529091506000906001600160a01b037f0000000000000000000000000000000000000000000000000000000000000000169063b536ffb690602401600060405180830381865afa158015611fae573d6000803e3d6000fd5b505050506040513d6000823e601f3d908101601f19168201604052611fd6919081019061562f565b60208301519091506001600160f81b03191615611ff257600080fd5b805160011461200057600080fd5b826120668260008151811061201757612017615072565b6020026020010151600001518360008151811061203657612036615072565b6020026020010151602001518460008151811061205557612055615072565b602002602001015160400151612649565b1461207057600080fd5b6060808a6001600160a01b03168c6001600160a01b0316036120cb5787878080601f01602080910402602001604051908101604052809392919081815260200183838082843760009201919091525092945061210592505050565b87878080601f0160208091040260200160405190810160405280939291908181526020018383808284376000920191909152509293505050505b61210f8b8a613485565b505060016093555063f23a6e6160e01b9998505050505050505050565b6000806000807f00000000000000000000000000000000000000000000000000000000000000006001600160a01b0316634ebad18e61216961191a565b6040516001600160e01b031960e084901b16815261ffff909116600482015260240161014060405180830381865afa1580156121a9573d6000803e3d6000fd5b505050506040513d601f19601f820116820180604052508101906121cd91906155a1565b508051604082015160609092015190969195509350915050565b6001600160a01b03163b151590565b6000612200611412565b61220c57506000919050565b6000806122176111ad565b604051635b16934560e11b815261ffff8316600482015264ffffffffff8216602482015291935091506000906001600160a01b037f0000000000000000000000000000000000000000000000000000000000000000169063b62d268a90604401606060405180830381865afa158015612294573d6000803e3d6000fd5b505050506040513d601f19601f820116820180604052508101906122b89190615718565b80519091506000036122cf57506000949350505050565b80516000126122dd57600080fd5b80516ec097ce7bc90715b34b9f1000000000906122fa9087614ef6565b6123049190614f2b565b95945050505050565b600080612318611412565b1561232857506000928392509050565b6000612332611c1a565b9150506000806123406111ad565b60405163c52c43e160e01b815261ffff8316600482015264ffffffffff82166024820152604481018990524260648201526000608482018190529294509092506001600160a01b037f0000000000000000000000000000000000000000000000000000000000000000169063c52c43e19060a401602060405180830381865afa1580156123d1573d6000803e3d6000fd5b505050506040513d601f19601f820116820180604052508101906123f59190614e93565b905060006305f5e1006124088684615773565b61241291906157f8565b9050600081121561242257600080fd5b60405163f11ff57360e01b815261ffff85166004820152602481018290526000907f00000000000000000000000000000000000000000000000000000000000000006001600160a01b03169063f11ff57390604401602060405180830381865afa158015612494573d6000803e3d6000fd5b505050506040513d601f19601f820116820180604052508101906124b89190614e93565b905060008112156124c857600080fd5b9890975095505050505050565b6001600160a01b0383166125375760405162461bcd60e51b8152602060048201526024808201527f45524332303a20617070726f76652066726f6d20746865207a65726f206164646044820152637265737360e01b6064820152608401610c93565b6001600160a01b0382166125985760405162461bcd60e51b815260206004820152602260248201527f45524332303a20617070726f766520746f20746865207a65726f206164647265604482015261737360f01b6064820152608401610c93565b6001600160a01b0383811660008181526034602090815260408083209487168084529482529182902085905590518481527f8c5be1e5ebec7d5bd14f71427d1e84f3dd0314c0f7b2291e5b200ac8c7c3b925910160405180910390a3505050565b60008061260583613564565b90506000612612866135ce565b61261c908361539c565b9050808511156126315760009250505061095d565b600061263d858761379f565b98975050505050505050565b6000613fff84111561265a57600080fd5b64ffffffffff83111561266c57600080fd5b600882111561267a57600080fd5b5067ffff000000000000603084901b1665ffffffffff00600884901b161760ff8216179392505050565b6060816000036126cb5750506040805180820190915260018152600360fc1b602082015290565b8160005b81156126f557806126df81615826565b91506126ee9050600a83614f2b565b91506126cf565b6000816001600160401b0381111561270f5761270f614bed565b6040519080825280601f01601f191660200182016040528015612739576020820181803683370190505b5090505b84156118ac5761274e6001836153f1565b915061275b600a8661583f565b61276690603061539c565b60f81b81838151811061277b5761277b615072565b60200101906001600160f81b031916908160001a90535061279d600a86614f2b565b945061273d565b600054610100900460ff166127cb5760405162461bcd60e51b8152600401610c9390615853565b611bcf828261398a565b80158061284f5750604051636eb1769f60e11b81523060048201526001600160a01b03838116602483015284169063dd62ed3e90604401602060405180830381865afa158015612829573d6000803e3d6000fd5b505050506040513d601f19601f8201168201806040525081019061284d9190614e93565b155b6128ba5760405162461bcd60e51b815260206004820152603660248201527f5361666545524332303a20617070726f76652066726f6d206e6f6e2d7a65726f60448201527520746f206e6f6e2d7a65726f20616c6c6f77616e636560501b6064820152608401610c93565b6040516001600160a01b0383166024820152604481018290526110cf90849063095ea7b360e01b906064015b60408051601f198184030181529190526020810180516001600160e01b03166001600160e01b0319909316929092179091526139ca565b6001600160a01b038381166000908152603460209081526040808320938616835292905220546000198114611104578181101561299c5760405162461bcd60e51b815260206004820152601d60248201527f45524332303a20696e73756666696369656e7420616c6c6f77616e63650000006044820152606401610c93565b61110484848484036124d5565b6001600160a01b038316612a0d5760405162461bcd60e51b815260206004820152602560248201527f45524332303a207472616e736665722066726f6d20746865207a65726f206164604482015264647265737360d81b6064820152608401610c93565b6001600160a01b038216612a6f5760405162461bcd60e51b815260206004820152602360248201527f45524332303a207472616e7366657220746f20746865207a65726f206164647260448201526265737360e81b6064820152608401610c93565b6001600160a01b03831660009081526033602052604090205481811015612ae75760405162461bcd60e51b815260206004820152602660248201527f45524332303a207472616e7366657220616d6f756e7420657863656564732062604482015265616c616e636560d01b6064820152608401610c93565b6001600160a01b03808516600090815260336020526040808220858503905591851681529081208054849290612b1e90849061539c565b92505081905550826001600160a01b0316846001600160a01b03167fddf252ad1be2c89b69c2b068fc378daa952ba7f163c4a11628f55a4df523b3ef84604051612b6a91815260200190565b60405180910390a3611104565b600260935403612b995760405162461bcd60e51b8152600401610c93906155d7565b6002609355612ba6611412565b15612be35760405162461bcd60e51b815260206004820152600d60248201526c1990d85cda081b585d1d5c9959609a1b6044820152606401610c93565b600080600080612bf1613a9c565b9350935093509350600083612c6d576040516370a0823160e01b81523060048201526001600160a01b038616906370a0823190602401602060405180830381865afa158015612c44573d6000803e3d6000fd5b505050506040513d601f19601f82011682018060405250810190612c689190614e93565b612c6f565b475b9050600080612c7c610a5c565b9050896001600160581b03168111612d7a5760006305f5e100612ca8866001600160581b038e16614ef6565b612cb29190614f2b565b90508b811115612cc157600080fd5b7f00000000000000000000000000000000000000000000000000000000000000006001600160a01b0316632890fb6530612cf961191a565b6040516001600160e01b031960e085901b1681526001600160a01b03909216600483015261ffff166024820152604481018490526064016020604051808303816000875af1158015612d4f573d6000803e3d6000fd5b505050506040513d601f19601f82011682018060405250810190612d739190614e93565b5050613090565b8580612d835750845b15612fda578515612ea8576040516323b872dd60e01b8152336004820152306024820152604481018c90526001600160a01b037f000000000000000000000000000000000000000000000000000000000000000016906323b872dd906064016020604051808303816000875af1158015612e01573d6000803e3d6000fd5b505050506040513d601f19601f82011682018060405250810190612e25919061589e565b50604051632e1a7d4d60e01b8152600481018c90527f00000000000000000000000000000000000000000000000000000000000000006001600160a01b031690632e1a7d4d90602401600060405180830381600087803b158015612e8857600080fd5b505af1158015612e9c573d6000803e3d6000fd5b505050508a9150612f34565b612ebd6001600160a01b03881633308e613b7c565b6040516370a0823160e01b815230600482015283906001600160a01b038916906370a0823190602401602060405180830381865afa158015612f03573d6000803e3d6000fd5b505050506040513d601f19601f82011682018060405250810190612f279190614e93565b612f3191906153f1565b9a505b6000612f51612f4161191a565b612f496118c6565b8e8e8d613bb4565b90507f00000000000000000000000000000000000000000000000000000000000000006001600160a01b0316630276b64b8430846040518463ffffffff1660e01b8152600401612fa29291906158f6565b6000604051808303818588803b158015612fbb57600080fd5b505af1158015612fcf573d6000803e3d6000fd5b505050505050613090565b612fef6001600160a01b03881633308e613b7c565b600061300b612ffc61191a565b6130046118c6565b8d8c613d8c565b604051630541f52760e41b81529091506001600160a01b037f0000000000000000000000000000000000000000000000000000000000000000169063541f52709061305c90309085906004016159c6565b600060405180830381600087803b15801561307657600080fd5b505af115801561308a573d6000803e3d6000fd5b50505050505b6130a3898b6001600160581b0316613485565b6130af87338886613edd565b5050600160935550505050505050505050565b60006001600160581b038211156130d857600080fd5b5090565b6002609354036130fe5760405162461bcd60e51b8152600401610c93906155d7565b6002609355600061310e60355490565b60408301519091506001600160a01b031661316b5760405162461bcd60e51b815260206004820152601860248201527f5265636569766572206973207a65726f206164647265737300000000000000006044820152606401610c93565b815161317657600080fd5b6131808484614099565b613188611412565b1561323e5760405163f667f89760e01b81523060048201527f00000000000000000000000000000000000000000000000000000000000000006001600160a01b03169063f667f89790602401600060405180830381600087803b1580156131ee57600080fd5b505af1158015613202573d6000803e3d6000fd5b50505050600061321061191a565b9050600061321d856121f6565b9050613236828560400151613231846130c2565b6141e7565b5050506132fb565b8160200151156132e6577f00000000000000000000000000000000000000000000000000000000000000006001600160a01b031663f242432a30846040015161328f6065546001600160401b031690565b876040518563ffffffff1660e01b81526004016132af9493929190615425565b600060405180830381600087803b1580156132c957600080fd5b505af11580156132dd573d6000803e3d6000fd5b505050506132fb565b6132f9826040015184846060015161432e565b505b505060016093555050565b6110cf81846040518060800160405280600115158152602001600015158152602001866001600160a01b03168152602001600063ffffffff168152506130dc565b600080600085116133925760405162461bcd60e51b815260206004820152601560248201527410d1ce881b9bc81b585c9ad95d1cc81b1a5cdd1959605a1b6044820152606401610c93565b60078511156133dc5760405162461bcd60e51b815260206004820152601660248201527510d1ce881b585c9ad95d081a5b99195e08189bdd5b9960521b6044820152606401610c93565b60006133e784613564565b905060015b86811161343e5760006133fe826135ce565b613408908461539c565b905086810361341f575092506000915061347d9050565b86811115613435575092506001915061347d9050565b506001016133ec565b5060405162461bcd60e51b815260206004820152601360248201527210d1ce881b9bc81b585c9ad95d08199bdd5b99606a1b6044820152606401610c93565b935093915050565b6001600160a01b0382166134db5760405162461bcd60e51b815260206004820152601f60248201527f45524332303a206d696e7420746f20746865207a65726f2061646472657373006044820152606401610c93565b80603560008282546134ed919061539c565b90915550506001600160a01b0382166000908152603360205260408120805483929061351a90849061539c565b90915550506040518181526001600160a01b038316906000907fddf252ad1be2c89b69c2b068fc378daa952ba7f163c4a11628f55a4df523b3ef9060200160405180910390a35050565b6000613574620151806006614ef6565b61357f906005614ef6565b61358a906003614ef6565b82101561359657600080fd5b6135a4620151806006614ef6565b6135af906005614ef6565b6135ba906003614ef6565b6135c4908361583f565b610b8390836153f1565b6000816001036135fc576135e6620151806006614ef6565b6135f1906005614ef6565b610b83906003614ef6565b8160020361363357613612620151806006614ef6565b61361d906005614ef6565b613628906003614ef6565b610b83906002614ef6565b8160030361366a57613649620151806006614ef6565b613654906005614ef6565b61365f906003614ef6565b610b83906004614ef6565b816004036136a157613680620151806006614ef6565b61368b906005614ef6565b613696906003614ef6565b613628906004614ef6565b816005036136e3576136b7620151806006614ef6565b6136c2906005614ef6565b6136cd906003614ef6565b6136d8906004614ef6565b610b83906005614ef6565b81600603613725576136f9620151806006614ef6565b613704906005614ef6565b61370f906003614ef6565b61371a906004614ef6565b610b8390600a614ef6565b816007036137675761373b620151806006614ef6565b613746906005614ef6565b613751906003614ef6565b61375c906004614ef6565b610b83906014614ef6565b60405162461bcd60e51b815260206004820152600d60248201526c092dcecc2d8d2c840d2dcc8caf609b1b6044820152606401610c93565b60008060006137ad8561458a565b90506137bc620151808561583f565b156137ce576000809250925050613983565b8381106137e2576000809250925050613983565b6000620151806137f283876153f1565b6137fc9190614f2b565b9050605a8111613813579250600191506139839050565b61016881116138885760006201518061382d816006614ef6565b613837908561583f565b6138419190614f2b565b61384c605a846153f1565b613856919061539c565b9050613863600682614f2b565b61386e90605a61539c565b61387960068361583f565b60001494509450505050613983565b61087081116138fa576000620151806138a2816006614ef6565b6138ad906005614ef6565b6138b7908561583f565b6138c19190614f2b565b6138cd610168846153f1565b6138d7919061539c565b90506138e4601e82614f2b565b6138ef90608761539c565b613879601e8361583f565b611de2811161397757600062015180613914816006614ef6565b61391f906005614ef6565b61392a906003614ef6565b613934908561583f565b61393e9190614f2b565b61394a610870846153f1565b613954919061539c565b9050613961605a82614f2b565b61396c9060c361539c565b613879605a8361583f565b61010060009350935050505b9250929050565b600054610100900460ff166139b15760405162461bcd60e51b8152600401610c9390615853565b60366139bd8382615a98565b5060376110cf8282615a98565b6000613a1f826040518060400160405280602081526020017f5361666545524332303a206c6f772d6c6576656c2063616c6c206661696c6564815250856001600160a01b03166145a99092919063ffffffff16565b8051909150156110cf5780806020019051810190613a3d919061589e565b6110cf5760405162461bcd60e51b815260206004820152602a60248201527f5361666545524332303a204552433230206f7065726174696f6e20646964206e6044820152691bdd081cdd58d8d9595960b21b6064820152608401610c93565b60008060008060007f00000000000000000000000000000000000000000000000000000000000000006001600160a01b0316634ebad18e613adb61191a565b6040516001600160e01b031960e084901b16815261ffff909116600482015260240161014060405180830381865afa158015613b1b573d6000803e3d6000fd5b505050506040513d601f19601f82011682018060405250810190613b3f91906155a1565b8051602082015160408301519198506001600160a01b03891615975095509092506000129050613b6e57600080fd5b806040015191505090919293565b6040516001600160a01b03808516602483015283166044820152606481018290526111049085906323b872dd60e01b906084016128e6565b604080516001808252818301909252606091816020015b613bd36148e7565b815260200190600190039081613bcb579050509050600281600081518110613bfd57613bfd615072565b6020026020010151600001906006811115613c1a57613c1a614e1a565b90816006811115613c2d57613c2d614e1a565b815250508581600081518110613c4557613c45615072565b60200260200101516020019061ffff16908161ffff16815250508381600081518110613c7357613c73615072565b60200260200101516040018181525050600181600081518110613c9857613c98615072565b60200260200101516080019015159081151581525050600181600081518110613cc357613cc3615072565b602090810291909101015190151560a090910152604080516001808252818301909252908160200160208202803683370190505081600081518110613d0a57613d0a615072565b602090810291909101015160c00152805160f086901b60ff60f01b16609885901b600160981b600160f01b031617607884901b63ffffffff60781b1617908290600090613d5957613d59615072565b602002602001015160c00151600081518110613d7757613d77615072565b60200260200101818152505095945050505050565b604080516001808252818301909252606091816020015b60408051606080820183526000808352602083015291810191909152815260200190600190039081613da35790505090508481600081518110613de857613de8615072565b60200260200101516000019061ffff16908161ffff1681525050600181600081518110613e1757613e17615072565b602090810291909101810151911515910152604080516001808252818301909252908160200160208202803683370190505081600081518110613e5c57613e5c615072565b602090810291909101015160400152805160f085901b60ff60f01b16609885901b600160981b600160f01b031617607884901b63ffffffff60781b1617908290600090613eab57613eab615072565b602002602001015160400151600081518110613ec957613ec9615072565b602002602001018181525050949350505050565b60008083613f52576040516370a0823160e01b81523060048201526001600160a01b038716906370a0823190602401602060405180830381865afa158015613f29573d6000803e3d6000fd5b505050506040513d601f19601f82011682018060405250810190613f4d9190614e93565b613f54565b475b9050613f6083826153f1565b91508315614076577f00000000000000000000000000000000000000000000000000000000000000006001600160a01b031663d0e30db0836040518263ffffffff1660e01b81526004016000604051808303818588803b158015613fc357600080fd5b505af1158015613fd7573d6000803e3d6000fd5b505060405163a9059cbb60e01b81526001600160a01b038981166004830152602482018790527f000000000000000000000000000000000000000000000000000000000000000016935063a9059cbb925060440190506020604051808303816000875af115801561404c573d6000803e3d6000fd5b505050506040513d601f19601f82011682018060405250810190614070919061589e565b50614090565b8115614090576140906001600160a01b03871686846145b8565b50949350505050565b6001600160a01b0382166140f95760405162461bcd60e51b815260206004820152602160248201527f45524332303a206275726e2066726f6d20746865207a65726f206164647265736044820152607360f81b6064820152608401610c93565b6001600160a01b0382166000908152603360205260409020548181101561416d5760405162461bcd60e51b815260206004820152602260248201527f45524332303a206275726e20616d6f756e7420657863656564732062616c616e604482015261636560f01b6064820152608401610c93565b6001600160a01b038316600090815260336020526040812083830390556035805484929061419c9084906153f1565b90915550506040518281526000906001600160a01b038516907fddf252ad1be2c89b69c2b068fc378daa952ba7f163c4a11628f55a4df523b3ef9060200160405180910390a3505050565b60008060006141f660016112bc565b9150915060008161426e576040516370a0823160e01b81523060048201526001600160a01b038416906370a0823190602401602060405180830381865afa158015614245573d6000803e3d6000fd5b505050506040513d601f19601f820116820180604052508101906142699190614e93565b614270565b475b604051625e665d60e31b815261ffff891660048201526001600160581b0387166024820152600160448201529091507f00000000000000000000000000000000000000000000000000000000000000006001600160a01b0316906302f332e8906064016020604051808303816000875af11580156142f2573d6000803e3d6000fd5b505050506040513d601f19601f820116820180604052508101906143169190614e93565b5061432383878484613edd565b979650505050505050565b600080600061433d60016112bc565b915091506000816143b5576040516370a0823160e01b81523060048201526001600160a01b038416906370a0823190602401602060405180830381865afa15801561438c573d6000803e3d6000fd5b505050506040513d601f19601f820116820180604052508101906143b09190614e93565b6143b7565b475b905060006143c361191a565b90506000806143d0610707565b9150915060008982101561440c576143eb610958838c6153f1565b509050600083136143fb57600080fd5b8281111561440857600080fd5b8199505b89156144b457600061442f856144206118c6565b6144298e6130c2565b8d6145e8565b604051630276b64b60e01b81529091506001600160a01b037f00000000000000000000000000000000000000000000000000000000000000001690630276b64b9061448090309085906004016158f6565b600060405180830381600087803b15801561449a57600080fd5b505af11580156144ae573d6000803e3d6000fd5b50505050505b801561456f577f00000000000000000000000000000000000000000000000000000000000000006001600160a01b03166302f332e8856144f3846130c2565b6040516001600160e01b031960e085901b16815261ffff90921660048301526001600160581b03166024820152600160448201526064016020604051808303816000875af1158015614549573d6000803e3d6000fd5b505050506040513d601f19601f8201168201806040525081019061456d9190614e93565b505b61457b878c8888613edd565b9b9a5050505050505050505050565b60006201518082101561459c57600080fd5b6135c4620151808361583f565b60606118ac848460008561478d565b6040516001600160a01b0383166024820152604481018290526110cf90849063a9059cbb60e01b906064016128e6565b604080516001808252818301909252606091816020015b6146076148e7565b8152602001906001900390816145ff57905050905060008160008151811061463157614631615072565b602002602001015160000190600681111561464e5761464e614e1a565b9081600681111561466157614661614e1a565b81525050848160008151811061467957614679615072565b60200260200101516020019061ffff16908161ffff16815250506001816000815181106146a8576146a8615072565b602002602001015160800190151590811515815250506001816000815181106146d3576146d3615072565b602090810291909101015190151560a09091015260408051600180825281830190925290816020016020820280368337019050508160008151811061471a5761471a615072565b602090810291909101015160c00152805160f085901b60ff60f01b16609885901b600160981b600160f01b031617607884901b63ffffffff60781b1617600160f81b1790829060009061476f5761476f615072565b602002602001015160c00151600081518110613ec957613ec9615072565b6060824710156147ee5760405162461bcd60e51b815260206004820152602660248201527f416464726573733a20696e73756666696369656e742062616c616e636520666f6044820152651c8818d85b1b60d21b6064820152608401610c93565b6001600160a01b0385163b6148455760405162461bcd60e51b815260206004820152601d60248201527f416464726573733a2063616c6c20746f206e6f6e2d636f6e74726163740000006044820152606401610c93565b600080866001600160a01b031685876040516148619190615b57565b60006040518083038185875af1925050503d806000811461489e576040519150601f19603f3d011682016040523d82523d6000602084013e6148a3565b606091505b5091509150614323828286606083156148bd57508161095d565b8251156148cd5782518084602001fd5b8160405162461bcd60e51b8152600401610c939190614959565b6040805160e081019091528060008152602001600061ffff1681526020016000815260200160008152602001600015158152602001600015158152602001606081525090565b60005b83811015614948578181015183820152602001614930565b838111156111045750506000910152565b602081526000825180602084015261497881604085016020870161492d565b601f01601f19169190910160400192915050565b60006020828403121561499e57600080fd5b5035919050565b6001600160a01b03811681146149ba57600080fd5b50565b600080604083850312156149d057600080fd5b82356149db816149a5565b946020939093013593505050565b6001600160581b03811681146149ba57600080fd5b803563ffffffff81168114610c5d57600080fd5b60008060008060808587031215614a2857600080fd5b843593506020850135614a3a816149e9565b92506040850135614a4a816149a5565b9150614a58606086016149fe565b905092959194509250565b61ffff811681146149ba57600080fd5b64ffffffffff811681146149ba57600080fd5b60008060408385031215614a9957600080fd5b8235614aa481614a63565b91506020830135614ab481614a73565b809150509250929050565b600080600060608486031215614ad457600080fd5b8335614adf816149a5565b92506020840135614aef816149a5565b929592945050506040919091013590565b600080600060608486031215614b1557600080fd5b833592506020840135614b27816149a5565b9150614b35604085016149fe565b90509250925092565b600060208284031215614b5057600080fd5b813561095d816149a5565b80151581146149ba57600080fd5b600060208284031215614b7b57600080fd5b813561095d81614b5b565b60008060408385031215614b9957600080fd5b823591506020830135614ab4816149a5565b600080600060608486031215614bc057600080fd5b833592506020840135614bd2816149a5565b91506040840135614be2816149a5565b809150509250925092565b634e487b7160e01b600052604160045260246000fd5b60405161010081016001600160401b0381118282101715614c2657614c26614bed565b60405290565b60405161016081016001600160401b0381118282101715614c2657614c26614bed565b60405160c081016001600160401b0381118282101715614c2657614c26614bed565b604051601f8201601f191681016001600160401b0381118282101715614c9957614c99614bed565b604052919050565b60008082840360a0811215614cb557600080fd5b833592506080601f1982011215614ccb57600080fd5b50604051608081018181106001600160401b0382111715614cee57614cee614bed565b6040526020840135614cff81614b5b565b81526040840135614d0f81614b5b565b60208201526060840135614d22816149a5565b6040820152614d33608085016149fe565b6060820152809150509250929050565b60008060408385031215614d5657600080fd5b8235614d61816149a5565b91506020830135614ab4816149a5565b60008060008060008060a08789031215614d8a57600080fd5b8635614d95816149a5565b95506020870135614da5816149a5565b9450604087013593506060870135925060808701356001600160401b0380821115614dcf57600080fd5b818901915089601f830112614de357600080fd5b813581811115614df257600080fd5b8a6020828501011115614e0457600080fd5b6020830194508093505050509295509295509295565b634e487b7160e01b600052602160045260246000fd5b6001600160a01b0384168152602081018390526060810160068310614e5757614e57614e1a565b826040830152949350505050565b600080600060608486031215614e7a57600080fd5b8351925060208401519150604084015190509250925092565b600060208284031215614ea557600080fd5b5051919050565b600181811c90821680614ec057607f821691505b602082108103610a3e57634e487b7160e01b600052602260045260246000fd5b634e487b7160e01b600052601160045260246000fd5b6000816000190483118215151615614f1057614f10614ee0565b500290565b634e487b7160e01b600052601260045260246000fd5b600082614f3a57614f3a614f15565b500490565b60006001600160401b03821115614f5857614f58614bed565b5060051b60200190565b60006020808385031215614f7557600080fd5b82516001600160401b03811115614f8b57600080fd5b8301601f81018513614f9c57600080fd5b8051614faf614faa82614f3f565b614c71565b81815260089190911b82018301908381019087831115614fce57600080fd5b928401925b82841015614323576101008489031215614fed5760008081fd5b614ff5614c03565b84518152858501518682015260408086015190820152606080860151908201526080808601519082015260a0808601519082015260c0808601519082015260e0808601519082015282526101009093019290840190614fd3565b600060ff821660ff84168082101561506957615069614ee0565b90039392505050565b634e487b7160e01b600052603260045260246000fd5b805160ff81168114610c5d57600080fd5b6000806000606084860312156150ae57600080fd5b83516150b9816149e9565b92506150c760208501615088565b9150604084015190509250925092565b600082601f8301126150e857600080fd5b815160206150f8614faa83614f3f565b82815260059290921b8401810191818101908684111561511757600080fd5b8286015b848110156151395761512c81615088565b835291830191830161511b565b509695505050505050565b60006020828403121561515657600080fd5b81516001600160401b038082111561516d57600080fd5b90830190610160828603121561518257600080fd5b61518a614c2c565b61519383615088565b81526151a160208401615088565b60208201526151b260408401615088565b60408201526151c360608401615088565b60608201526151d460808401615088565b60808201526151e560a08401615088565b60a08201526151f660c08401615088565b60c082015261520760e08401615088565b60e082015261010061521a818501615088565b90820152610120838101518381111561523257600080fd5b61523e888287016150d7565b828401525050610140808401518381111561525857600080fd5b615264888287016150d7565b918301919091525095945050505050565b60006020828403121561528757600080fd5b81516001600160401b038082111561529e57600080fd5b818401915084601f8301126152b257600080fd5b8151818111156152c4576152c4614bed565b6152d7601f8201601f1916602001614c71565b91508082528560208285010111156152ee57600080fd5b61409081602084016020860161492d565b682bb930b83832b2103360b91b81526000835161532381600985016020880161492d565b6201020160ed1b600991840191820152835161534681600c84016020880161492d565b01600c01949350505050565b613bb360f11b81526000835161536f81600285016020880161492d565b601d60f91b600291840191820152835161539081600384016020880161492d565b01600301949350505050565b600082198211156153af576153af614ee0565b500190565b600080600080608085870312156153ca57600080fd5b84519350602085015192506153e160408601615088565b6060959095015193969295505050565b60008282101561540357615403614ee0565b500390565b60006020828403121561541a57600080fd5b815161095d816149a5565b6001600160a01b0394851681529290931660208301526040820152606081019190915260a06080820181905260009082015260c00190565b600060a0828403121561546f57600080fd5b60405160a081018181106001600160401b038211171561549157615491614bed565b604052825161549f81614a73565b815260208301516001600160f81b0319811681146154bc57600080fd5b60208201526154cd60408401615088565b604082015260608301516154e081614a63565b606082015260808301516dffffffffffffffffffffffffffff198116811461550757600080fd5b60808201529392505050565b600060a0828403121561552557600080fd5b60405160a081018181106001600160401b038211171561554757615547614bed565b8060405250809150825161555a816149a5565b8152602083015161556a81614b5b565b60208201526040838101519082015260608301516006811061558b57600080fd5b6060820152608092830151920191909152919050565b60008061014083850312156155b557600080fd5b6155bf8484615513565b91506155ce8460a08501615513565b90509250929050565b6020808252601f908201527f5265656e7472616e637947756172643a207265656e7472616e742063616c6c00604082015260600190565b602080825260079082015266125b9d985b1a5960ca1b604082015260600190565b6000602080838503121561564257600080fd5b82516001600160401b0381111561565857600080fd5b8301601f8101851361566957600080fd5b8051615677614faa82614f3f565b81815260c0918202830184019184820191908884111561569657600080fd5b938501935b8385101561570c5780858a0312156156b35760008081fd5b6156bb614c4f565b85518152868601518782015260408087015190820152606080870151908201526080808701519082015260a080870151600381106156f95760008081fd5b908201528352938401939185019161569b565b50979650505050505050565b60006060828403121561572a57600080fd5b604051606081018181106001600160401b038211171561574c5761574c614bed565b80604052508251815260208301516020820152604083015160408201528091505092915050565b60006001600160ff1b038184138284138082168684048611161561579957615799614ee0565b600160ff1b60008712828116878305891216156157b8576157b8614ee0565b600087129250878205871284841616156157d4576157d4614ee0565b878505871281841616156157ea576157ea614ee0565b505050929093029392505050565b60008261580757615807614f15565b600160ff1b82146000198414161561582157615821614ee0565b500590565b60006001820161583857615838614ee0565b5060010190565b60008261584e5761584e614f15565b500690565b6020808252602b908201527f496e697469616c697a61626c653a20636f6e7472616374206973206e6f74206960408201526a6e697469616c697a696e6760a81b606082015260800190565b6000602082840312156158b057600080fd5b815161095d81614b5b565b600081518084526020808501945080840160005b838110156158eb578151875295820195908201906001016158cf565b509495945050505050565b6001600160a01b03831681526040602080830182905283518383018190526000929160609182860190600581901b87018401888401875b838110156159b657605f198a8403018552815160e081516007811061595457615954614e1a565b85528188015161ffff1688860152898201518a860152888201518986015260808083015115159086015260a08083015115159086015260c0918201519185018190526159a2818601836158bb565b96880196945050509085019060010161592d565b50909a9950505050505050505050565b6001600160a01b03831681526040602080830182905283518383018190526000929160609182860190600581901b87018401888401875b838110156159b657898303605f190185528151805161ffff16845286810151151587850152880151888401889052615a37888501826158bb565b95870195935050908501906001016159fd565b601f8211156110cf57600081815260208120601f850160051c81016020861015615a715750805b601f850160051c820191505b81811015615a9057828155600101615a7d565b505050505050565b81516001600160401b03811115615ab157615ab1614bed565b615ac581615abf8454614eac565b84615a4a565b602080601f831160018114615afa5760008415615ae25750858301515b600019600386901b1c1916600185901b178555615a90565b600085815260208120601f198616915b82811015615b2957888601518255948401946001909101908401615b0a565b5085821015615b475787850151600019600388901b60f8161c191681555b5050505050600190811b01905550565b60008251615b6981846020870161492d565b919091019291505056fea26469706673582212206adb3c1bbcc3023b4e9266fffb6fde610340af4ef1352736d058899b66aed9cb64736f6c634300080f0033",
    "linkReferences": {}
  },
  "methodIdentifiers": {
    "NotionalV2()": "19b53d35",
    "WETH()": "ad5c4648",
    "allowance(address,address)": "dd62ed3e",
    "approve(address,uint256)": "095ea7b3",
    "asset()": "38d52e0f",
    "balanceOf(address)": "70a08231",
    "convertToAssets(uint256)": "07a2d13a",
    "convertToShares(uint256)": "c6e6f592",
    "decimals()": "313ce567",
    "decreaseAllowance(address,uint256)": "a457c2d7",
    "deposit(uint256,address)": "6e553f65",
    "getAssetToken()": "f8eef10f",
    "getBalances()": "00113e08",
    "getCurrencyId()": "cf387fed",
    "getDecodedID()": "48d8f98d",
    "getMarketIndex()": "cb803ceb",
    "getMaturity()": "e16695b5",
    "getToken(bool)": "51489551",
    "getTotalFCashAvailable()": "0a0fbca4",
    "getUnderlyingToken()": "ee719bc8",
    "getfCashId()": "0558d500",
    "hasMatured()": "a1093295",
    "increaseAllowance(address,uint256)": "39509351",
    "initialize(uint16,uint40)": "152b838c",
    "maxDeposit(address)": "402d267d",
    "maxMint(address)": "c63d75b6",
    "maxRedeem(address)": "d905777e",
    "maxWithdraw(address)": "ce96cb77",
    "mint(uint256,address)": "94bf804d",
    "mintViaAsset(uint256,uint88,address,uint32)": "0db8481c",
    "mintViaUnderlying(uint256,uint88,address,uint32)": "29cf1405",
    "name()": "06fdde03",
    "onERC1155Received(address,address,uint256,uint256,bytes)": "f23a6e61",
    "previewDeposit(uint256)": "ef8b30f7",
    "previewMint(uint256)": "b3d7f6b9",
    "previewRedeem(uint256)": "4cdad506",
    "previewWithdraw(uint256)": "0a28a477",
    "recoverInvalidfCash(uint256,address)": "d7fd4aad",
    "redeem(uint256,(bool,bool,address,uint32))": "d84878b8",
    "redeem(uint256,address,address)": "ba087652",
    "redeemToAsset(uint256,address,uint32)": "3d3192cb",
    "redeemToUnderlying(uint256,address,uint32)": "745d08d9",
    "symbol()": "95d89b41",
    "totalAssets()": "01e1d114",
    "totalSupply()": "18160ddd",
    "transfer(address,uint256)": "a9059cbb",
    "transferFrom(address,address,uint256)": "23b872dd",
    "withdraw(uint256,address,address)": "b460af94"
  },
  "id": 9
}