{
  "abi": [
    {
      "inputs": [
        {
          "internalType": "uint8",
          "name": "_decimals",
          "type": "uint8"
        }
      ],
      "stateMutability": "nonpayable",
      "type": "constructor"
    },
    {
      "anonymous": false,
      "inputs": [
        {
          "indexed": true,
          "internalType": "int256",
          "name": "current",
          "type": "int256"
        },
        {
          "indexed": true,
          "internalType": "uint256",
          "name": "roundId",
          "type": "uint256"
        },
        {
          "indexed": false,
          "internalType": "uint256",
          "name": "timestamp",
          "type": "uint256"
        }
      ],
      "name": "AnswerUpdated",
      "type": "event"
    },
    {
      "inputs": [],
      "name": "answeredInRound",
      "outputs": [
        {
          "internalType": "uint80",
          "name": "",
          "type": "uint80"
        }
      ],
      "stateMutability": "view",
      "type": "function"
    },
    {
      "inputs": [],
      "name": "decimals",
      "outputs": [
        {
          "internalType": "uint8",
          "name": "",
          "type": "uint8"
        }
      ],
      "stateMutability": "view",
      "type": "function"
    },
    {
      "inputs": [],
      "name": "latestAnswer",
      "outputs": [
        {
          "internalType": "int256",
          "name": "",
          "type": "int256"
        }
      ],
      "stateMutability": "view",
      "type": "function"
    },
    {
      "inputs": [],
      "name": "latestRoundData",
      "outputs": [
        {
          "internalType": "uint80",
          "name": "",
          "type": "uint80"
        },
        {
          "internalType": "int256",
          "name": "",
          "type": "int256"
        },
        {
          "internalType": "uint256",
          "name": "",
          "type": "uint256"
        },
        {
          "internalType": "uint256",
          "name": "",
          "type": "uint256"
        },
        {
          "internalType": "uint80",
          "name": "",
          "type": "uint80"
        }
      ],
      "stateMutability": "view",
      "type": "function"
    },
    {
      "inputs": [],
      "name": "roundId",
      "outputs": [
        {
          "internalType": "uint80",
          "name": "",
          "type": "uint80"
        }
      ],
      "stateMutability": "view",
      "type": "function"
    },
    {
      "inputs": [
        {
          "internalType": "int256",
          "name": "a",
          "type": "int256"
        }
      ],
      "name": "setAnswer",
      "outputs": [],
      "stateMutability": "nonpayable",
      "type": "function"
    },
    {
      "inputs": [
        {
          "internalType": "uint80",
          "name": "_roundId",
          "type": "uint80"
        },
        {
          "internalType": "uint256",
          "name": "_updatedAt",
          "type": "uint256"
        },
        {
          "internalType": "uint80",
          "name": "_answeredInRound",
          "type": "uint80"
        }
      ],
      "name": "setRoundData",
      "outputs": [],
      "stateMutability": "nonpayable",
      "type": "function"
    },
    {
      "inputs": [],
      "name": "updatedAt",
      "outputs": [
        {
          "internalType": "uint256",
          "name": "",
          "type": "uint256"
        }
      ],
      "stateMutability": "view",
      "type": "function"
    }
  ],
  "bytecode": {
    "object": "0x608060405234801561001057600080fd5b5060405161033d38038061033d8339818101604052602081101561003357600080fd5b50516003805460ff191660ff909216919091179055600180546a01000000000000000000006001600160501b03199091168217600160501b600160a01b0319161781556002556102b5806100886000396000f3fe608060405234801561001057600080fd5b50600436106100885760003560e01c806399213cd81161005b57806399213cd8146100f15780639a4c42c614610110578063c22c249914610146578063feaf968c1461014e57610088565b8063313ce5671461008d57806350d25bcd146100ab5780637519ab50146100c55780638cd221c9146100cd575b600080fd5b61009561019a565b6040805160ff9092168252519081900360200190f35b6100b36101a3565b60408051918252519081900360200190f35b6100b36101a9565b6100d56101af565b604080516001600160501b039092168252519081900360200190f35b61010e6004803603602081101561010757600080fd5b50356101be565b005b61010e6004803603606081101561012657600080fd5b506001600160501b038135811691602081013591604090910135166101fc565b6100d5610243565b610156610259565b60405180866001600160501b03168152602001858152602001848152602001838152602001826001600160501b031681526020019550505050505060405180910390f35b60035460ff1681565b60005490565b60025481565b6001546001600160501b031681565b600081815560408051428152905183917f0559884fd3a460db3073b7fc896cc77986f16e378210ded43186175bf646fc5f919081900360200190a350565b6001805460029390935569ffffffffffffffffffff199092166001600160501b039384161769ffffffffffffffffffff60501b1916600160501b9190931602919091179055565b600154600160501b90046001600160501b031681565b600154600080546002546001600160501b038085169592949192600160501b909204169056fea2646970667358221220e1dcbdc338ca24274c1c6df12ce510010489ed3bc4a958aa826267e13177486964736f6c63430007060033",
    "linkReferences": {}
  },
  "methodIdentifiers": {
    "answeredInRound()": "c22c2499",
    "decimals()": "313ce567",
    "latestAnswer()": "50d25bcd",
    "latestRoundData()": "feaf968c",
    "roundId()": "8cd221c9",
    "setAnswer(int256)": "99213cd8",
    "setRoundData(uint80,uint256,uint80)": "9a4c42c6",
    "updatedAt()": "7519ab50"
  },
  "id": 0
}